{
  "_format": "hh-sol-artifact-1",
  "contractName": "DocTokenV3",
  "sourceName": "contracts/DocTokenV3.sol",
  "abi": [
    {
      "inputs": [],
      "stateMutability": "nonpayable",
      "type": "constructor"
    },
    {
      "anonymous": false,
      "inputs": [
        {
          "indexed": true,
          "internalType": "address",
          "name": "account",
          "type": "address"
        },
        {
          "indexed": true,
          "internalType": "address",
          "name": "operator",
          "type": "address"
        },
        {
          "indexed": false,
          "internalType": "bool",
          "name": "approved",
          "type": "bool"
        }
      ],
      "name": "ApprovalForAll",
      "type": "event"
    },
    {
      "anonymous": false,
      "inputs": [
        {
          "indexed": false,
          "internalType": "uint8",
          "name": "version",
          "type": "uint8"
        }
      ],
      "name": "Initialized",
      "type": "event"
    },
    {
      "anonymous": false,
      "inputs": [
        {
          "indexed": true,
          "internalType": "address",
          "name": "previousOwner",
          "type": "address"
        },
        {
          "indexed": true,
          "internalType": "address",
          "name": "newOwner",
          "type": "address"
        }
      ],
      "name": "OwnershipTransferred",
      "type": "event"
    },
    {
      "anonymous": false,
      "inputs": [
        {
          "indexed": true,
          "internalType": "address",
          "name": "operator",
          "type": "address"
        },
        {
          "indexed": true,
          "internalType": "address",
          "name": "from",
          "type": "address"
        },
        {
          "indexed": true,
          "internalType": "address",
          "name": "to",
          "type": "address"
        },
        {
          "indexed": false,
          "internalType": "uint256[]",
          "name": "ids",
          "type": "uint256[]"
        },
        {
          "indexed": false,
          "internalType": "uint256[]",
          "name": "values",
          "type": "uint256[]"
        }
      ],
      "name": "TransferBatch",
      "type": "event"
    },
    {
      "anonymous": false,
      "inputs": [
        {
          "indexed": true,
          "internalType": "address",
          "name": "operator",
          "type": "address"
        },
        {
          "indexed": true,
          "internalType": "address",
          "name": "from",
          "type": "address"
        },
        {
          "indexed": true,
          "internalType": "address",
          "name": "to",
          "type": "address"
        },
        {
          "indexed": false,
          "internalType": "uint256",
          "name": "id",
          "type": "uint256"
        },
        {
          "indexed": false,
          "internalType": "uint256",
          "name": "value",
          "type": "uint256"
        }
      ],
      "name": "TransferSingle",
      "type": "event"
    },
    {
      "anonymous": false,
      "inputs": [
        {
          "indexed": false,
          "internalType": "string",
          "name": "value",
          "type": "string"
        },
        {
          "indexed": true,
          "internalType": "uint256",
          "name": "id",
          "type": "uint256"
        }
      ],
      "name": "URI",
      "type": "event"
    },
    {
      "inputs": [
        {
          "internalType": "address",
          "name": "account",
          "type": "address"
        },
        {
          "internalType": "uint256",
          "name": "id",
          "type": "uint256"
        }
      ],
      "name": "balanceOf",
      "outputs": [
        {
          "internalType": "uint256",
          "name": "",
          "type": "uint256"
        }
      ],
      "stateMutability": "view",
      "type": "function"
    },
    {
      "inputs": [
        {
          "internalType": "address[]",
          "name": "accounts",
          "type": "address[]"
        },
        {
          "internalType": "uint256[]",
          "name": "ids",
          "type": "uint256[]"
        }
      ],
      "name": "balanceOfBatch",
      "outputs": [
        {
          "internalType": "uint256[]",
          "name": "",
          "type": "uint256[]"
        }
      ],
      "stateMutability": "view",
      "type": "function"
    },
    {
      "inputs": [],
      "name": "cashierAddress",
      "outputs": [
        {
          "internalType": "address",
          "name": "",
          "type": "address"
        }
      ],
      "stateMutability": "view",
      "type": "function"
    },
    {
      "inputs": [
        {
          "internalType": "uint256",
          "name": "id",
          "type": "uint256"
        }
      ],
      "name": "exists",
      "outputs": [
        {
          "internalType": "bool",
          "name": "",
          "type": "bool"
        }
      ],
      "stateMutability": "view",
      "type": "function"
    },
    {
      "inputs": [],
      "name": "initialize",
      "outputs": [],
      "stateMutability": "nonpayable",
      "type": "function"
    },
    {
      "inputs": [
        {
          "internalType": "address",
          "name": "account",
          "type": "address"
        },
        {
          "internalType": "address",
          "name": "operator",
          "type": "address"
        }
      ],
      "name": "isApprovedForAll",
      "outputs": [
        {
          "internalType": "bool",
          "name": "",
          "type": "bool"
        }
      ],
      "stateMutability": "view",
      "type": "function"
    },
    {
      "inputs": [
        {
          "internalType": "address",
          "name": "account",
          "type": "address"
        },
        {
          "internalType": "uint256",
          "name": "id",
          "type": "uint256"
        },
        {
          "internalType": "uint256",
          "name": "amount",
          "type": "uint256"
        },
        {
          "internalType": "bytes",
          "name": "data",
          "type": "bytes"
        }
      ],
      "name": "mint",
      "outputs": [],
      "stateMutability": "payable",
      "type": "function"
    },
    {
      "inputs": [
        {
          "internalType": "address",
          "name": "to",
          "type": "address"
        },
        {
          "internalType": "uint256[]",
          "name": "ids",
          "type": "uint256[]"
        },
        {
          "internalType": "uint256[]",
          "name": "amounts",
          "type": "uint256[]"
        },
        {
          "internalType": "bytes",
          "name": "data",
          "type": "bytes"
        }
      ],
      "name": "mintBatch",
      "outputs": [],
      "stateMutability": "nonpayable",
      "type": "function"
    },
    {
      "inputs": [],
      "name": "mintFee",
      "outputs": [
        {
          "internalType": "uint256",
          "name": "",
          "type": "uint256"
        }
      ],
      "stateMutability": "view",
      "type": "function"
    },
    {
      "inputs": [],
      "name": "owner",
      "outputs": [
        {
          "internalType": "address",
          "name": "",
          "type": "address"
        }
      ],
      "stateMutability": "view",
      "type": "function"
    },
    {
      "inputs": [],
      "name": "renounceOwnership",
      "outputs": [],
      "stateMutability": "nonpayable",
      "type": "function"
    },
    {
      "inputs": [
        {
          "internalType": "address",
          "name": "from",
          "type": "address"
        },
        {
          "internalType": "address",
          "name": "to",
          "type": "address"
        },
        {
          "internalType": "uint256[]",
          "name": "ids",
          "type": "uint256[]"
        },
        {
          "internalType": "uint256[]",
          "name": "amounts",
          "type": "uint256[]"
        },
        {
          "internalType": "bytes",
          "name": "data",
          "type": "bytes"
        }
      ],
      "name": "safeBatchTransferFrom",
      "outputs": [],
      "stateMutability": "nonpayable",
      "type": "function"
    },
    {
      "inputs": [
        {
          "internalType": "address",
          "name": "from",
          "type": "address"
        },
        {
          "internalType": "address",
          "name": "to",
          "type": "address"
        },
        {
          "internalType": "uint256",
          "name": "id",
          "type": "uint256"
        },
        {
          "internalType": "uint256",
          "name": "amount",
          "type": "uint256"
        },
        {
          "internalType": "bytes",
          "name": "data",
          "type": "bytes"
        }
      ],
      "name": "safeTransferFrom",
      "outputs": [],
      "stateMutability": "nonpayable",
      "type": "function"
    },
    {
      "inputs": [
        {
          "internalType": "address",
          "name": "operator",
          "type": "address"
        },
        {
          "internalType": "bool",
          "name": "approved",
          "type": "bool"
        }
      ],
      "name": "setApprovalForAll",
      "outputs": [],
      "stateMutability": "nonpayable",
      "type": "function"
    },
    {
      "inputs": [
        {
          "internalType": "address",
          "name": "_addr",
          "type": "address"
        }
      ],
      "name": "setCashierAddress",
      "outputs": [],
      "stateMutability": "nonpayable",
      "type": "function"
    },
    {
      "inputs": [
        {
          "internalType": "uint256",
          "name": "_fee",
          "type": "uint256"
        }
      ],
      "name": "setMintFee",
      "outputs": [],
      "stateMutability": "nonpayable",
      "type": "function"
    },
    {
      "inputs": [
        {
          "internalType": "string",
          "name": "newuri",
          "type": "string"
        }
      ],
      "name": "setURI",
      "outputs": [],
      "stateMutability": "nonpayable",
      "type": "function"
    },
    {
      "inputs": [
        {
          "internalType": "bytes4",
          "name": "interfaceId",
          "type": "bytes4"
        }
      ],
      "name": "supportsInterface",
      "outputs": [
        {
          "internalType": "bool",
          "name": "",
          "type": "bool"
        }
      ],
      "stateMutability": "view",
      "type": "function"
    },
    {
      "inputs": [
        {
          "internalType": "uint256",
          "name": "id",
          "type": "uint256"
        }
      ],
      "name": "totalSupply",
      "outputs": [
        {
          "internalType": "uint256",
          "name": "",
          "type": "uint256"
        }
      ],
      "stateMutability": "view",
      "type": "function"
    },
    {
      "inputs": [
        {
          "internalType": "address",
          "name": "newOwner",
          "type": "address"
        }
      ],
      "name": "transferOwnership",
      "outputs": [],
      "stateMutability": "nonpayable",
      "type": "function"
    },
    {
      "inputs": [
        {
          "internalType": "uint256",
          "name": "",
          "type": "uint256"
        }
      ],
      "name": "uri",
      "outputs": [
        {
          "internalType": "string",
          "name": "",
          "type": "string"
        }
      ],
      "stateMutability": "view",
      "type": "function"
    }
  ],
  "bytecode": "0x60806040523480156200001157600080fd5b50620000226200002860201b60201c565b620001d3565b600060019054906101000a900460ff16156200007b576040517f08c379a0000000000000000000000000000000000000000000000000000000008152600401620000729062000127565b60405180910390fd5b60ff801660008054906101000a900460ff1660ff161015620000ed5760ff6000806101000a81548160ff021916908360ff1602179055507f7f26b83ff96e1f2b6a682f133852f6798a09c465da95921460cefb384740249860ff604051620000e4919062000149565b60405180910390a15b565b6000620000fe60278362000166565b91506200010b8262000184565b604082019050919050565b620001218162000177565b82525050565b600060208201905081810360008301526200014281620000ef565b9050919050565b600060208201905062000160600083018462000116565b92915050565b600082825260208201905092915050565b600060ff82169050919050565b7f496e697469616c697a61626c653a20636f6e747261637420697320696e69746960008201527f616c697a696e6700000000000000000000000000000000000000000000000000602082015250565b613e7180620001e36000396000f3fe6080604052600436106101295760003560e01c8063715018a6116100ab578063bd85b0391161006f578063bd85b039146103ce578063c099a7c41461040b578063e985e9c514610434578063eddd0d9c14610471578063f242432a1461049a578063f2fde38b146104c357610129565b8063715018a614610330578063731133e9146103475780638129fc1c146103635780638da5cb5b1461037a578063a22cb465146103a557610129565b80631f7fdffa116100f25780631f7fdffa146102395780632eb2c2d6146102625780634e1273f41461028b5780634f558e79146102c85780634f755c3e1461030557610129565b8062fdd58e1461012e57806301ffc9a71461016b57806302fe5305146101a85780630e89341c146101d157806313966db51461020e575b600080fd5b34801561013a57600080fd5b5061015560048036038101906101509190612b1d565b6104ec565b60405161016291906133ed565b60405180910390f35b34801561017757600080fd5b50610192600480360381019061018d9190612c40565b6105b6565b60405161019f9190613195565b60405180910390f35b3480156101b457600080fd5b506101cf60048036038101906101ca9190612c92565b610698565b005b3480156101dd57600080fd5b506101f860048036038101906101f39190612cd3565b6106ac565b60405161020591906131cb565b60405180910390f35b34801561021a57600080fd5b50610223610740565b60405161023091906133ed565b60405180910390f35b34801561024557600080fd5b50610260600480360381019061025b9190612a36565b610746565b005b34801561026e57600080fd5b50610289600480360381019061028491906128e8565b610760565b005b34801561029757600080fd5b506102b260048036038101906102ad9190612bd4565b610801565b6040516102bf919061313c565b60405180910390f35b3480156102d457600080fd5b506102ef60048036038101906102ea9190612cd3565b6109b2565b6040516102fc9190613195565b60405180910390f35b34801561031157600080fd5b5061031a6109c6565b604051610327919061305f565b60405180910390f35b34801561033c57600080fd5b506103456109ec565b005b610361600480360381019061035c9190612b59565b610a00565b005b34801561036f57600080fd5b50610378610ad8565b005b34801561038657600080fd5b5061038f610c36565b60405161039c919061305f565b60405180910390f35b3480156103b157600080fd5b506103cc60048036038101906103c79190612ae1565b610c60565b005b3480156103da57600080fd5b506103f560048036038101906103f09190612cd3565b610c76565b60405161040291906133ed565b60405180910390f35b34801561041757600080fd5b50610432600480360381019061042d9190612883565b610c93565b005b34801561044057600080fd5b5061045b600480360381019061045691906128ac565b610d19565b6040516104689190613195565b60405180910390f35b34801561047d57600080fd5b5061049860048036038101906104939190612cd3565b610dad565b005b3480156104a657600080fd5b506104c160048036038101906104bc91906129a7565b610dbf565b005b3480156104cf57600080fd5b506104ea60048036038101906104e59190612883565b610e60565b005b60008073ffffffffffffffffffffffffffffffffffffffff168373ffffffffffffffffffffffffffffffffffffffff16141561055d576040517f08c379a00000000000000000000000000000000000000000000000000000000081526004016105549061328d565b60405180910390fd5b6065600083815260200190815260200160002060008473ffffffffffffffffffffffffffffffffffffffff1673ffffffffffffffffffffffffffffffffffffffff16815260200190815260200160002054905092915050565b60007fd9b67a26000000000000000000000000000000000000000000000000000000007bffffffffffffffffffffffffffffffffffffffffffffffffffffffff1916827bffffffffffffffffffffffffffffffffffffffffffffffffffffffff1916148061068157507f0e89341c000000000000000000000000000000000000000000000000000000007bffffffffffffffffffffffffffffffffffffffffffffffffffffffff1916827bffffffffffffffffffffffffffffffffffffffffffffffffffffffff1916145b80610691575061069082610ee4565b5b9050919050565b6106a0610f4e565b6106a981610fcc565b50565b6060606780546106bb90613706565b80601f01602080910402602001604051908101604052809291908181526020018280546106e790613706565b80156107345780601f1061070957610100808354040283529160200191610734565b820191906000526020600020905b81548152906001019060200180831161071757829003601f168201915b50505050509050919050565b60fb5481565b61074e610f4e565b61075a84848484610fe6565b50505050565b610768611260565b73ffffffffffffffffffffffffffffffffffffffff168573ffffffffffffffffffffffffffffffffffffffff1614806107ae57506107ad856107a8611260565b610d19565b5b6107ed576040517f08c379a00000000000000000000000000000000000000000000000000000000081526004016107e49061320d565b60405180910390fd5b6107fa8585858585611268565b5050505050565b60608151835114610847576040517f08c379a000000000000000000000000000000000000000000000000000000000815260040161083e9061338d565b60405180910390fd5b6000835167ffffffffffffffff81111561088a577f4e487b7100000000000000000000000000000000000000000000000000000000600052604160045260246000fd5b6040519080825280602002602001820160405280156108b85781602001602082028036833780820191505090505b50905060005b84518110156109a757610951858281518110610903577f4e487b7100000000000000000000000000000000000000000000000000000000600052603260045260246000fd5b6020026020010151858381518110610944577f4e487b7100000000000000000000000000000000000000000000000000000000600052603260045260246000fd5b60200260200101516104ec565b82828151811061098a577f4e487b7100000000000000000000000000000000000000000000000000000000600052603260045260246000fd5b602002602001018181525050806109a090613769565b90506108be565b508091505092915050565b6000806109be83610c76565b119050919050565b60fc60009054906101000a900473ffffffffffffffffffffffffffffffffffffffff1681565b6109f4610f4e565b6109fe60006115d9565b565b6000610a178360fb5461169f90919063ffffffff16565b905080341015610a5c576040517f08c379a0000000000000000000000000000000000000000000000000000000008152600401610a539061324d565b60405180910390fd5b60fc60009054906101000a900473ffffffffffffffffffffffffffffffffffffffff1673ffffffffffffffffffffffffffffffffffffffff166108fc829081150290604051600060405180830381858888f19350505050158015610ac4573d6000803e3d6000fd5b50610ad1858585856116b5565b5050505050565b60008060019054906101000a900460ff16159050808015610b095750600160008054906101000a900460ff1660ff16105b80610b365750610b1830611867565b158015610b355750600160008054906101000a900460ff1660ff16145b5b610b75576040517f08c379a0000000000000000000000000000000000000000000000000000000008152600401610b6c906132cd565b60405180910390fd5b60016000806101000a81548160ff021916908360ff1602179055508015610bb2576001600060016101000a81548160ff0219169083151502179055505b610bca6040518060200160405280600081525061188a565b610bd26118e5565b610bda61193e565b8015610c335760008060016101000a81548160ff0219169083151502179055507f7f26b83ff96e1f2b6a682f133852f6798a09c465da95921460cefb38474024986001604051610c2a91906131b0565b60405180910390a15b50565b6000609760009054906101000a900473ffffffffffffffffffffffffffffffffffffffff16905090565b610c72610c6b611260565b838361198f565b5050565b600060c96000838152602001908152602001600020549050919050565b610c9b610f4e565b600073ffffffffffffffffffffffffffffffffffffffff168173ffffffffffffffffffffffffffffffffffffffff161415610cd557600080fd5b8060fc60006101000a81548173ffffffffffffffffffffffffffffffffffffffff021916908373ffffffffffffffffffffffffffffffffffffffff16021790555050565b6000606660008473ffffffffffffffffffffffffffffffffffffffff1673ffffffffffffffffffffffffffffffffffffffff16815260200190815260200160002060008373ffffffffffffffffffffffffffffffffffffffff1673ffffffffffffffffffffffffffffffffffffffff16815260200190815260200160002060009054906101000a900460ff16905092915050565b610db5610f4e565b8060fb8190555050565b610dc7611260565b73ffffffffffffffffffffffffffffffffffffffff168573ffffffffffffffffffffffffffffffffffffffff161480610e0d5750610e0c85610e07611260565b610d19565b5b610e4c576040517f08c379a0000000000000000000000000000000000000000000000000000000008152600401610e439061320d565b60405180910390fd5b610e598585858585611afc565b5050505050565b610e68610f4e565b600073ffffffffffffffffffffffffffffffffffffffff168173ffffffffffffffffffffffffffffffffffffffff161415610ed8576040517f08c379a0000000000000000000000000000000000000000000000000000000008152600401610ecf9061326d565b60405180910390fd5b610ee1816115d9565b50565b60007f01ffc9a7000000000000000000000000000000000000000000000000000000007bffffffffffffffffffffffffffffffffffffffffffffffffffffffff1916827bffffffffffffffffffffffffffffffffffffffffffffffffffffffff1916149050919050565b610f56611260565b73ffffffffffffffffffffffffffffffffffffffff16610f74610c36565b73ffffffffffffffffffffffffffffffffffffffff1614610fca576040517f08c379a0000000000000000000000000000000000000000000000000000000008152600401610fc19061330d565b60405180910390fd5b565b8060679080519060200190610fe292919061257b565b5050565b600073ffffffffffffffffffffffffffffffffffffffff168473ffffffffffffffffffffffffffffffffffffffff161415611056576040517f08c379a000000000000000000000000000000000000000000000000000000000815260040161104d906133cd565b60405180910390fd5b815183511461109a576040517f08c379a0000000000000000000000000000000000000000000000000000000008152600401611091906133ad565b60405180910390fd5b60006110a4611260565b90506110b581600087878787611d9b565b60005b84518110156111bb578381815181106110fa577f4e487b7100000000000000000000000000000000000000000000000000000000600052603260045260246000fd5b60200260200101516065600087848151811061113f577f4e487b7100000000000000000000000000000000000000000000000000000000600052603260045260246000fd5b6020026020010151815260200190815260200160002060008873ffffffffffffffffffffffffffffffffffffffff1673ffffffffffffffffffffffffffffffffffffffff16815260200190815260200160002060008282546111a19190613581565b9250508190555080806111b390613769565b9150506110b8565b508473ffffffffffffffffffffffffffffffffffffffff16600073ffffffffffffffffffffffffffffffffffffffff168273ffffffffffffffffffffffffffffffffffffffff167f4a39dc06d4c0dbc64b70af90fd698a233a518aa5d07e595d983b8c0526c8f7fb878760405161123392919061315e565b60405180910390a461124a81600087878787611db1565b61125981600087878787611db9565b5050505050565b600033905090565b81518351146112ac576040517f08c379a00000000000000000000000000000000000000000000000000000000081526004016112a3906133ad565b60405180910390fd5b600073ffffffffffffffffffffffffffffffffffffffff168473ffffffffffffffffffffffffffffffffffffffff16141561131c576040517f08c379a0000000000000000000000000000000000000000000000000000000008152600401611313906132ad565b60405180910390fd5b6000611326611260565b9050611336818787878787611d9b565b60005b845181101561153657600085828151811061137d577f4e487b7100000000000000000000000000000000000000000000000000000000600052603260045260246000fd5b6020026020010151905060008583815181106113c2577f4e487b7100000000000000000000000000000000000000000000000000000000600052603260045260246000fd5b6020026020010151905060006065600084815260200190815260200160002060008b73ffffffffffffffffffffffffffffffffffffffff1673ffffffffffffffffffffffffffffffffffffffff16815260200190815260200160002054905081811015611464576040517f08c379a000000000000000000000000000000000000000000000000000000000815260040161145b906132ed565b60405180910390fd5b8181036065600085815260200190815260200160002060008c73ffffffffffffffffffffffffffffffffffffffff1673ffffffffffffffffffffffffffffffffffffffff16815260200190815260200160002081905550816065600085815260200190815260200160002060008b73ffffffffffffffffffffffffffffffffffffffff1673ffffffffffffffffffffffffffffffffffffffff168152602001908152602001600020600082825461151b9190613581565b925050819055505050508061152f90613769565b9050611339565b508473ffffffffffffffffffffffffffffffffffffffff168673ffffffffffffffffffffffffffffffffffffffff168273ffffffffffffffffffffffffffffffffffffffff167f4a39dc06d4c0dbc64b70af90fd698a233a518aa5d07e595d983b8c0526c8f7fb87876040516115ad92919061315e565b60405180910390a46115c3818787878787611db1565b6115d1818787878787611db9565b505050505050565b6000609760009054906101000a900473ffffffffffffffffffffffffffffffffffffffff16905081609760006101000a81548173ffffffffffffffffffffffffffffffffffffffff021916908373ffffffffffffffffffffffffffffffffffffffff1602179055508173ffffffffffffffffffffffffffffffffffffffff168173ffffffffffffffffffffffffffffffffffffffff167f8be0079c531659141344cd1fd0a4f28419497f9722a3daafe3b4186f6b6457e060405160405180910390a35050565b600081836116ad91906135d7565b905092915050565b600073ffffffffffffffffffffffffffffffffffffffff168473ffffffffffffffffffffffffffffffffffffffff161415611725576040517f08c379a000000000000000000000000000000000000000000000000000000000815260040161171c906133cd565b60405180910390fd5b600061172f611260565b9050600061173c85611fa0565b9050600061174985611fa0565b905061175a83600089858589611d9b565b846065600088815260200190815260200160002060008973ffffffffffffffffffffffffffffffffffffffff1673ffffffffffffffffffffffffffffffffffffffff16815260200190815260200160002060008282546117ba9190613581565b925050819055508673ffffffffffffffffffffffffffffffffffffffff16600073ffffffffffffffffffffffffffffffffffffffff168473ffffffffffffffffffffffffffffffffffffffff167fc3d58168c5ae7397731d063d5bbf3d657854427343f4c083240f7aacaa2d0f628989604051611838929190613408565b60405180910390a461184f83600089858589611db1565b61185e83600089898989612066565b50505050505050565b6000808273ffffffffffffffffffffffffffffffffffffffff163b119050919050565b600060019054906101000a900460ff166118d9576040517f08c379a00000000000000000000000000000000000000000000000000000000081526004016118d09061334d565b60405180910390fd5b6118e28161224d565b50565b600060019054906101000a900460ff16611934576040517f08c379a000000000000000000000000000000000000000000000000000000000815260040161192b9061334d565b60405180910390fd5b61193c6122a8565b565b600060019054906101000a900460ff1661198d576040517f08c379a00000000000000000000000000000000000000000000000000000000081526004016119849061334d565b60405180910390fd5b565b8173ffffffffffffffffffffffffffffffffffffffff168373ffffffffffffffffffffffffffffffffffffffff1614156119fe576040517f08c379a00000000000000000000000000000000000000000000000000000000081526004016119f59061336d565b60405180910390fd5b80606660008573ffffffffffffffffffffffffffffffffffffffff1673ffffffffffffffffffffffffffffffffffffffff16815260200190815260200160002060008473ffffffffffffffffffffffffffffffffffffffff1673ffffffffffffffffffffffffffffffffffffffff16815260200190815260200160002060006101000a81548160ff0219169083151502179055508173ffffffffffffffffffffffffffffffffffffffff168373ffffffffffffffffffffffffffffffffffffffff167f17307eab39ab6107e8899845ad3d59bd9653f200f220920489ca2b5937696c3183604051611aef9190613195565b60405180910390a3505050565b600073ffffffffffffffffffffffffffffffffffffffff168473ffffffffffffffffffffffffffffffffffffffff161415611b6c576040517f08c379a0000000000000000000000000000000000000000000000000000000008152600401611b63906132ad565b60405180910390fd5b6000611b76611260565b90506000611b8385611fa0565b90506000611b9085611fa0565b9050611ba0838989858589611d9b565b60006065600088815260200190815260200160002060008a73ffffffffffffffffffffffffffffffffffffffff1673ffffffffffffffffffffffffffffffffffffffff16815260200190815260200160002054905085811015611c38576040517f08c379a0000000000000000000000000000000000000000000000000000000008152600401611c2f906132ed565b60405180910390fd5b8581036065600089815260200190815260200160002060008b73ffffffffffffffffffffffffffffffffffffffff1673ffffffffffffffffffffffffffffffffffffffff16815260200190815260200160002081905550856065600089815260200190815260200160002060008a73ffffffffffffffffffffffffffffffffffffffff1673ffffffffffffffffffffffffffffffffffffffff1681526020019081526020016000206000828254611cef9190613581565b925050819055508773ffffffffffffffffffffffffffffffffffffffff168973ffffffffffffffffffffffffffffffffffffffff168573ffffffffffffffffffffffffffffffffffffffff167fc3d58168c5ae7397731d063d5bbf3d657854427343f4c083240f7aacaa2d0f628a8a604051611d6c929190613408565b60405180910390a4611d82848a8a86868a611db1565b611d90848a8a8a8a8a612066565b505050505050505050565b611da9868686868686612309565b505050505050565b505050505050565b611dd88473ffffffffffffffffffffffffffffffffffffffff16611867565b15611f98578373ffffffffffffffffffffffffffffffffffffffff1663bc197c8187878686866040518663ffffffff1660e01b8152600401611e1e95949392919061307a565b602060405180830381600087803b158015611e3857600080fd5b505af1925050508015611e6957506040513d601f19601f82011682018060405250810190611e669190612c69565b60015b611f0f57611e7561383f565b806308c379a01415611ed25750611e8a613d49565b80611e955750611ed4565b806040517f08c379a0000000000000000000000000000000000000000000000000000000008152600401611ec991906131cb565b60405180910390fd5b505b6040517f08c379a0000000000000000000000000000000000000000000000000000000008152600401611f06906131ed565b60405180910390fd5b63bc197c8160e01b7bffffffffffffffffffffffffffffffffffffffffffffffffffffffff1916817bffffffffffffffffffffffffffffffffffffffffffffffffffffffff191614611f96576040517f08c379a0000000000000000000000000000000000000000000000000000000008152600401611f8d9061322d565b60405180910390fd5b505b505050505050565b60606000600167ffffffffffffffff811115611fe5577f4e487b7100000000000000000000000000000000000000000000000000000000600052604160045260246000fd5b6040519080825280602002602001820160405280156120135781602001602082028036833780820191505090505b5090508281600081518110612051577f4e487b7100000000000000000000000000000000000000000000000000000000600052603260045260246000fd5b60200260200101818152505080915050919050565b6120858473ffffffffffffffffffffffffffffffffffffffff16611867565b15612245578373ffffffffffffffffffffffffffffffffffffffff1663f23a6e6187878686866040518663ffffffff1660e01b81526004016120cb9594939291906130e2565b602060405180830381600087803b1580156120e557600080fd5b505af192505050801561211657506040513d601f19601f820116820180604052508101906121139190612c69565b60015b6121bc5761212261383f565b806308c379a0141561217f5750612137613d49565b806121425750612181565b806040517f08c379a000000000000000000000000000000000000000000000000000000000815260040161217691906131cb565b60405180910390fd5b505b6040517f08c379a00000000000000000000000000000000000000000000000000000000081526004016121b3906131ed565b60405180910390fd5b63f23a6e6160e01b7bffffffffffffffffffffffffffffffffffffffffffffffffffffffff1916817bffffffffffffffffffffffffffffffffffffffffffffffffffffffff191614612243576040517f08c379a000000000000000000000000000000000000000000000000000000000815260040161223a9061322d565b60405180910390fd5b505b505050505050565b600060019054906101000a900460ff1661229c576040517f08c379a00000000000000000000000000000000000000000000000000000000081526004016122939061334d565b60405180910390fd5b6122a581610fcc565b50565b600060019054906101000a900460ff166122f7576040517f08c379a00000000000000000000000000000000000000000000000000000000081526004016122ee9061334d565b60405180910390fd5b612307612302611260565b6115d9565b565b612317868686868686612573565b600073ffffffffffffffffffffffffffffffffffffffff168573ffffffffffffffffffffffffffffffffffffffff1614156124155760005b835181101561241357828181518110612391577f4e487b7100000000000000000000000000000000000000000000000000000000600052603260045260246000fd5b602002602001015160c960008684815181106123d6577f4e487b7100000000000000000000000000000000000000000000000000000000600052603260045260246000fd5b6020026020010151815260200190815260200160002060008282546123fb9190613581565b925050819055508061240c90613769565b905061234f565b505b600073ffffffffffffffffffffffffffffffffffffffff168473ffffffffffffffffffffffffffffffffffffffff16141561256b5760005b8351811015612569576000848281518110612491577f4e487b7100000000000000000000000000000000000000000000000000000000600052603260045260246000fd5b6020026020010151905060008483815181106124d6577f4e487b7100000000000000000000000000000000000000000000000000000000600052603260045260246000fd5b60200260200101519050600060c960008481526020019081526020016000205490508181101561253b576040517f08c379a00000000000000000000000000000000000000000000000000000000081526004016125329061332d565b60405180910390fd5b81810360c96000858152602001908152602001600020819055505050508061256290613769565b905061244d565b505b505050505050565b505050505050565b82805461258790613706565b90600052602060002090601f0160209004810192826125a957600085556125f0565b82601f106125c257805160ff19168380011785556125f0565b828001600101855582156125f0579182015b828111156125ef5782518255916020019190600101906125d4565b5b5090506125fd9190612601565b5090565b5b8082111561261a576000816000905550600101612602565b5090565b600061263161262c84613456565b613431565b9050808382526020820190508285602086028201111561265057600080fd5b60005b8581101561268057816126668882612772565b845260208401935060208301925050600181019050612653565b5050509392505050565b600061269d61269884613482565b613431565b905080838252602082019050828560208602820111156126bc57600080fd5b60005b858110156126ec57816126d2888261286e565b8452602084019350602083019250506001810190506126bf565b5050509392505050565b6000612709612704846134ae565b613431565b90508281526020810184848401111561272157600080fd5b61272c8482856136c4565b509392505050565b6000612747612742846134df565b613431565b90508281526020810184848401111561275f57600080fd5b61276a8482856136c4565b509392505050565b60008135905061278181613ddf565b92915050565b600082601f83011261279857600080fd5b81356127a884826020860161261e565b91505092915050565b600082601f8301126127c257600080fd5b81356127d284826020860161268a565b91505092915050565b6000813590506127ea81613df6565b92915050565b6000813590506127ff81613e0d565b92915050565b60008151905061281481613e0d565b92915050565b600082601f83011261282b57600080fd5b813561283b8482602086016126f6565b91505092915050565b600082601f83011261285557600080fd5b8135612865848260208601612734565b91505092915050565b60008135905061287d81613e24565b92915050565b60006020828403121561289557600080fd5b60006128a384828501612772565b91505092915050565b600080604083850312156128bf57600080fd5b60006128cd85828601612772565b92505060206128de85828601612772565b9150509250929050565b600080600080600060a0868803121561290057600080fd5b600061290e88828901612772565b955050602061291f88828901612772565b945050604086013567ffffffffffffffff81111561293c57600080fd5b612948888289016127b1565b935050606086013567ffffffffffffffff81111561296557600080fd5b612971888289016127b1565b925050608086013567ffffffffffffffff81111561298e57600080fd5b61299a8882890161281a565b9150509295509295909350565b600080600080600060a086880312156129bf57600080fd5b60006129cd88828901612772565b95505060206129de88828901612772565b94505060406129ef8882890161286e565b9350506060612a008882890161286e565b925050608086013567ffffffffffffffff811115612a1d57600080fd5b612a298882890161281a565b9150509295509295909350565b60008060008060808587031215612a4c57600080fd5b6000612a5a87828801612772565b945050602085013567ffffffffffffffff811115612a7757600080fd5b612a83878288016127b1565b935050604085013567ffffffffffffffff811115612aa057600080fd5b612aac878288016127b1565b925050606085013567ffffffffffffffff811115612ac957600080fd5b612ad58782880161281a565b91505092959194509250565b60008060408385031215612af457600080fd5b6000612b0285828601612772565b9250506020612b13858286016127db565b9150509250929050565b60008060408385031215612b3057600080fd5b6000612b3e85828601612772565b9250506020612b4f8582860161286e565b9150509250929050565b60008060008060808587031215612b6f57600080fd5b6000612b7d87828801612772565b9450506020612b8e8782880161286e565b9350506040612b9f8782880161286e565b925050606085013567ffffffffffffffff811115612bbc57600080fd5b612bc88782880161281a565b91505092959194509250565b60008060408385031215612be757600080fd5b600083013567ffffffffffffffff811115612c0157600080fd5b612c0d85828601612787565b925050602083013567ffffffffffffffff811115612c2a57600080fd5b612c36858286016127b1565b9150509250929050565b600060208284031215612c5257600080fd5b6000612c60848285016127f0565b91505092915050565b600060208284031215612c7b57600080fd5b6000612c8984828501612805565b91505092915050565b600060208284031215612ca457600080fd5b600082013567ffffffffffffffff811115612cbe57600080fd5b612cca84828501612844565b91505092915050565b600060208284031215612ce557600080fd5b6000612cf38482850161286e565b91505092915050565b6000612d088383613041565b60208301905092915050565b612d1d81613631565b82525050565b6000612d2e82613520565b612d38818561354e565b9350612d4383613510565b8060005b83811015612d74578151612d5b8882612cfc565b9750612d6683613541565b925050600181019050612d47565b5085935050505092915050565b612d8a81613643565b82525050565b6000612d9b8261352b565b612da5818561355f565b9350612db58185602086016136d3565b612dbe81613861565b840191505092915050565b612dd2816136b2565b82525050565b6000612de382613536565b612ded8185613570565b9350612dfd8185602086016136d3565b612e0681613861565b840191505092915050565b6000612e1e603483613570565b9150612e298261387f565b604082019050919050565b6000612e41602f83613570565b9150612e4c826138ce565b604082019050919050565b6000612e64602883613570565b9150612e6f8261391d565b604082019050919050565b6000612e87602383613570565b9150612e928261396c565b604082019050919050565b6000612eaa602683613570565b9150612eb5826139bb565b604082019050919050565b6000612ecd602a83613570565b9150612ed882613a0a565b604082019050919050565b6000612ef0602583613570565b9150612efb82613a59565b604082019050919050565b6000612f13602e83613570565b9150612f1e82613aa8565b604082019050919050565b6000612f36602a83613570565b9150612f4182613af7565b604082019050919050565b6000612f59602083613570565b9150612f6482613b46565b602082019050919050565b6000612f7c602883613570565b9150612f8782613b6f565b604082019050919050565b6000612f9f602b83613570565b9150612faa82613bbe565b604082019050919050565b6000612fc2602983613570565b9150612fcd82613c0d565b604082019050919050565b6000612fe5602983613570565b9150612ff082613c5c565b604082019050919050565b6000613008602883613570565b915061301382613cab565b604082019050919050565b600061302b602183613570565b915061303682613cfa565b604082019050919050565b61304a8161369b565b82525050565b6130598161369b565b82525050565b60006020820190506130746000830184612d14565b92915050565b600060a08201905061308f6000830188612d14565b61309c6020830187612d14565b81810360408301526130ae8186612d23565b905081810360608301526130c28185612d23565b905081810360808301526130d68184612d90565b90509695505050505050565b600060a0820190506130f76000830188612d14565b6131046020830187612d14565b6131116040830186613050565b61311e6060830185613050565b81810360808301526131308184612d90565b90509695505050505050565b600060208201905081810360008301526131568184612d23565b905092915050565b600060408201905081810360008301526131788185612d23565b9050818103602083015261318c8184612d23565b90509392505050565b60006020820190506131aa6000830184612d81565b92915050565b60006020820190506131c56000830184612dc9565b92915050565b600060208201905081810360008301526131e58184612dd8565b905092915050565b6000602082019050818103600083015261320681612e11565b9050919050565b6000602082019050818103600083015261322681612e34565b9050919050565b6000602082019050818103600083015261324681612e57565b9050919050565b6000602082019050818103600083015261326681612e7a565b9050919050565b6000602082019050818103600083015261328681612e9d565b9050919050565b600060208201905081810360008301526132a681612ec0565b9050919050565b600060208201905081810360008301526132c681612ee3565b9050919050565b600060208201905081810360008301526132e681612f06565b9050919050565b6000602082019050818103600083015261330681612f29565b9050919050565b6000602082019050818103600083015261332681612f4c565b9050919050565b6000602082019050818103600083015261334681612f6f565b9050919050565b6000602082019050818103600083015261336681612f92565b9050919050565b6000602082019050818103600083015261338681612fb5565b9050919050565b600060208201905081810360008301526133a681612fd8565b9050919050565b600060208201905081810360008301526133c681612ffb565b9050919050565b600060208201905081810360008301526133e68161301e565b9050919050565b60006020820190506134026000830184613050565b92915050565b600060408201905061341d6000830185613050565b61342a6020830184613050565b9392505050565b600061343b61344c565b90506134478282613738565b919050565b6000604051905090565b600067ffffffffffffffff82111561347157613470613810565b5b602082029050602081019050919050565b600067ffffffffffffffff82111561349d5761349c613810565b5b602082029050602081019050919050565b600067ffffffffffffffff8211156134c9576134c8613810565b5b6134d282613861565b9050602081019050919050565b600067ffffffffffffffff8211156134fa576134f9613810565b5b61350382613861565b9050602081019050919050565b6000819050602082019050919050565b600081519050919050565b600081519050919050565b600081519050919050565b6000602082019050919050565b600082825260208201905092915050565b600082825260208201905092915050565b600082825260208201905092915050565b600061358c8261369b565b91506135978361369b565b9250827fffffffffffffffffffffffffffffffffffffffffffffffffffffffffffffffff038211156135cc576135cb6137b2565b5b828201905092915050565b60006135e28261369b565b91506135ed8361369b565b9250817fffffffffffffffffffffffffffffffffffffffffffffffffffffffffffffffff0483118215151615613626576136256137b2565b5b828202905092915050565b600061363c8261367b565b9050919050565b60008115159050919050565b60007fffffffff0000000000000000000000000000000000000000000000000000000082169050919050565b600073ffffffffffffffffffffffffffffffffffffffff82169050919050565b6000819050919050565b600060ff82169050919050565b60006136bd826136a5565b9050919050565b82818337600083830152505050565b60005b838110156136f15780820151818401526020810190506136d6565b83811115613700576000848401525b50505050565b6000600282049050600182168061371e57607f821691505b60208210811415613732576137316137e1565b5b50919050565b61374182613861565b810181811067ffffffffffffffff821117156137605761375f613810565b5b80604052505050565b60006137748261369b565b91507fffffffffffffffffffffffffffffffffffffffffffffffffffffffffffffffff8214156137a7576137a66137b2565b5b600182019050919050565b7f4e487b7100000000000000000000000000000000000000000000000000000000600052601160045260246000fd5b7f4e487b7100000000000000000000000000000000000000000000000000000000600052602260045260246000fd5b7f4e487b7100000000000000000000000000000000000000000000000000000000600052604160045260246000fd5b600060033d111561385e5760046000803e61385b600051613872565b90505b90565b6000601f19601f8301169050919050565b60008160e01c9050919050565b7f455243313135353a207472616e7366657220746f206e6f6e204552433131353560008201527f526563656976657220696d706c656d656e746572000000000000000000000000602082015250565b7f455243313135353a2063616c6c6572206973206e6f7420746f6b656e206f776e60008201527f6572206e6f7220617070726f7665640000000000000000000000000000000000602082015250565b7f455243313135353a204552433131353552656365697665722072656a6563746560008201527f6420746f6b656e73000000000000000000000000000000000000000000000000602082015250565b7f4e6f7420656e6f756768204d415449432073656e743b20636865636b2070726960008201527f6365210000000000000000000000000000000000000000000000000000000000602082015250565b7f4f776e61626c653a206e6577206f776e657220697320746865207a65726f206160008201527f6464726573730000000000000000000000000000000000000000000000000000602082015250565b7f455243313135353a2061646472657373207a65726f206973206e6f742061207660008201527f616c6964206f776e657200000000000000000000000000000000000000000000602082015250565b7f455243313135353a207472616e7366657220746f20746865207a65726f20616460008201527f6472657373000000000000000000000000000000000000000000000000000000602082015250565b7f496e697469616c697a61626c653a20636f6e747261637420697320616c72656160008201527f647920696e697469616c697a6564000000000000000000000000000000000000602082015250565b7f455243313135353a20696e73756666696369656e742062616c616e636520666f60008201527f72207472616e7366657200000000000000000000000000000000000000000000602082015250565b7f4f776e61626c653a2063616c6c6572206973206e6f7420746865206f776e6572600082015250565b7f455243313135353a206275726e20616d6f756e74206578636565647320746f7460008201527f616c537570706c79000000000000000000000000000000000000000000000000602082015250565b7f496e697469616c697a61626c653a20636f6e7472616374206973206e6f74206960008201527f6e697469616c697a696e67000000000000000000000000000000000000000000602082015250565b7f455243313135353a2073657474696e6720617070726f76616c2073746174757360008201527f20666f722073656c660000000000000000000000000000000000000000000000602082015250565b7f455243313135353a206163636f756e747320616e6420696473206c656e67746860008201527f206d69736d617463680000000000000000000000000000000000000000000000602082015250565b7f455243313135353a2069647320616e6420616d6f756e7473206c656e6774682060008201527f6d69736d61746368000000000000000000000000000000000000000000000000602082015250565b7f455243313135353a206d696e7420746f20746865207a65726f2061646472657360008201527f7300000000000000000000000000000000000000000000000000000000000000602082015250565b600060443d1015613d5957613ddc565b613d6161344c565b60043d036004823e80513d602482011167ffffffffffffffff82111715613d89575050613ddc565b808201805167ffffffffffffffff811115613da75750505050613ddc565b80602083010160043d038501811115613dc4575050505050613ddc565b613dd382602001850186613738565b82955050505050505b90565b613de881613631565b8114613df357600080fd5b50565b613dff81613643565b8114613e0a57600080fd5b50565b613e168161364f565b8114613e2157600080fd5b50565b613e2d8161369b565b8114613e3857600080fd5b5056fea26469706673582212207e084af6a223ff9b17c9fe74893c45a7c4650c26b9a32e1f1815bc3673d81f9664736f6c63430008040033",
  "linkReferences": {},
  "deployedLinkReferences": {}
}