{
  "_format": "hh-sol-artifact-1",
  "contractName": "DocTokenV2",
  "sourceName": "contracts/DocTokenV2.sol",
  "abi": [
    {
      "inputs": [],
      "stateMutability": "nonpayable",
      "type": "constructor"
    },
    {
      "anonymous": false,
      "inputs": [
        {
          "indexed": true,
          "internalType": "address",
          "name": "account",
          "type": "address"
        },
        {
          "indexed": true,
          "internalType": "address",
          "name": "operator",
          "type": "address"
        },
        {
          "indexed": false,
          "internalType": "bool",
          "name": "approved",
          "type": "bool"
        }
      ],
      "name": "ApprovalForAll",
      "type": "event"
    },
    {
      "anonymous": false,
      "inputs": [
        {
          "indexed": false,
          "internalType": "uint8",
          "name": "version",
          "type": "uint8"
        }
      ],
      "name": "Initialized",
      "type": "event"
    },
    {
      "anonymous": false,
      "inputs": [
        {
          "indexed": true,
          "internalType": "address",
          "name": "previousOwner",
          "type": "address"
        },
        {
          "indexed": true,
          "internalType": "address",
          "name": "newOwner",
          "type": "address"
        }
      ],
      "name": "OwnershipTransferred",
      "type": "event"
    },
    {
      "anonymous": false,
      "inputs": [
        {
          "indexed": true,
          "internalType": "address",
          "name": "operator",
          "type": "address"
        },
        {
          "indexed": true,
          "internalType": "address",
          "name": "from",
          "type": "address"
        },
        {
          "indexed": true,
          "internalType": "address",
          "name": "to",
          "type": "address"
        },
        {
          "indexed": false,
          "internalType": "uint256[]",
          "name": "ids",
          "type": "uint256[]"
        },
        {
          "indexed": false,
          "internalType": "uint256[]",
          "name": "values",
          "type": "uint256[]"
        }
      ],
      "name": "TransferBatch",
      "type": "event"
    },
    {
      "anonymous": false,
      "inputs": [
        {
          "indexed": true,
          "internalType": "address",
          "name": "operator",
          "type": "address"
        },
        {
          "indexed": true,
          "internalType": "address",
          "name": "from",
          "type": "address"
        },
        {
          "indexed": true,
          "internalType": "address",
          "name": "to",
          "type": "address"
        },
        {
          "indexed": false,
          "internalType": "uint256",
          "name": "id",
          "type": "uint256"
        },
        {
          "indexed": false,
          "internalType": "uint256",
          "name": "value",
          "type": "uint256"
        }
      ],
      "name": "TransferSingle",
      "type": "event"
    },
    {
      "anonymous": false,
      "inputs": [
        {
          "indexed": false,
          "internalType": "string",
          "name": "value",
          "type": "string"
        },
        {
          "indexed": true,
          "internalType": "uint256",
          "name": "id",
          "type": "uint256"
        }
      ],
      "name": "URI",
      "type": "event"
    },
    {
      "inputs": [
        {
          "internalType": "address",
          "name": "account",
          "type": "address"
        },
        {
          "internalType": "uint256",
          "name": "id",
          "type": "uint256"
        }
      ],
      "name": "balanceOf",
      "outputs": [
        {
          "internalType": "uint256",
          "name": "",
          "type": "uint256"
        }
      ],
      "stateMutability": "view",
      "type": "function"
    },
    {
      "inputs": [
        {
          "internalType": "address[]",
          "name": "accounts",
          "type": "address[]"
        },
        {
          "internalType": "uint256[]",
          "name": "ids",
          "type": "uint256[]"
        }
      ],
      "name": "balanceOfBatch",
      "outputs": [
        {
          "internalType": "uint256[]",
          "name": "",
          "type": "uint256[]"
        }
      ],
      "stateMutability": "view",
      "type": "function"
    },
    {
      "inputs": [
        {
          "internalType": "uint256",
          "name": "id",
          "type": "uint256"
        }
      ],
      "name": "exists",
      "outputs": [
        {
          "internalType": "bool",
          "name": "",
          "type": "bool"
        }
      ],
      "stateMutability": "view",
      "type": "function"
    },
    {
      "inputs": [],
      "name": "initialize",
      "outputs": [],
      "stateMutability": "nonpayable",
      "type": "function"
    },
    {
      "inputs": [
        {
          "internalType": "address",
          "name": "account",
          "type": "address"
        },
        {
          "internalType": "address",
          "name": "operator",
          "type": "address"
        }
      ],
      "name": "isApprovedForAll",
      "outputs": [
        {
          "internalType": "bool",
          "name": "",
          "type": "bool"
        }
      ],
      "stateMutability": "view",
      "type": "function"
    },
    {
      "inputs": [
        {
          "internalType": "address",
          "name": "account",
          "type": "address"
        },
        {
          "internalType": "uint256",
          "name": "id",
          "type": "uint256"
        },
        {
          "internalType": "uint256",
          "name": "amount",
          "type": "uint256"
        },
        {
          "internalType": "bytes",
          "name": "data",
          "type": "bytes"
        }
      ],
      "name": "mint",
      "outputs": [],
      "stateMutability": "nonpayable",
      "type": "function"
    },
    {
      "inputs": [
        {
          "internalType": "address",
          "name": "to",
          "type": "address"
        },
        {
          "internalType": "uint256[]",
          "name": "ids",
          "type": "uint256[]"
        },
        {
          "internalType": "uint256[]",
          "name": "amounts",
          "type": "uint256[]"
        },
        {
          "internalType": "bytes",
          "name": "data",
          "type": "bytes"
        }
      ],
      "name": "mintBatch",
      "outputs": [],
      "stateMutability": "nonpayable",
      "type": "function"
    },
    {
      "inputs": [],
      "name": "owner",
      "outputs": [
        {
          "internalType": "address",
          "name": "",
          "type": "address"
        }
      ],
      "stateMutability": "view",
      "type": "function"
    },
    {
      "inputs": [],
      "name": "renounceOwnership",
      "outputs": [],
      "stateMutability": "nonpayable",
      "type": "function"
    },
    {
      "inputs": [
        {
          "internalType": "address",
          "name": "from",
          "type": "address"
        },
        {
          "internalType": "address",
          "name": "to",
          "type": "address"
        },
        {
          "internalType": "uint256[]",
          "name": "ids",
          "type": "uint256[]"
        },
        {
          "internalType": "uint256[]",
          "name": "amounts",
          "type": "uint256[]"
        },
        {
          "internalType": "bytes",
          "name": "data",
          "type": "bytes"
        }
      ],
      "name": "safeBatchTransferFrom",
      "outputs": [],
      "stateMutability": "nonpayable",
      "type": "function"
    },
    {
      "inputs": [
        {
          "internalType": "address",
          "name": "from",
          "type": "address"
        },
        {
          "internalType": "address",
          "name": "to",
          "type": "address"
        },
        {
          "internalType": "uint256",
          "name": "id",
          "type": "uint256"
        },
        {
          "internalType": "uint256",
          "name": "amount",
          "type": "uint256"
        },
        {
          "internalType": "bytes",
          "name": "data",
          "type": "bytes"
        }
      ],
      "name": "safeTransferFrom",
      "outputs": [],
      "stateMutability": "nonpayable",
      "type": "function"
    },
    {
      "inputs": [
        {
          "internalType": "address",
          "name": "operator",
          "type": "address"
        },
        {
          "internalType": "bool",
          "name": "approved",
          "type": "bool"
        }
      ],
      "name": "setApprovalForAll",
      "outputs": [],
      "stateMutability": "nonpayable",
      "type": "function"
    },
    {
      "inputs": [
        {
          "internalType": "string",
          "name": "newuri",
          "type": "string"
        }
      ],
      "name": "setURI",
      "outputs": [],
      "stateMutability": "nonpayable",
      "type": "function"
    },
    {
      "inputs": [
        {
          "internalType": "bytes4",
          "name": "interfaceId",
          "type": "bytes4"
        }
      ],
      "name": "supportsInterface",
      "outputs": [
        {
          "internalType": "bool",
          "name": "",
          "type": "bool"
        }
      ],
      "stateMutability": "view",
      "type": "function"
    },
    {
      "inputs": [
        {
          "internalType": "uint256",
          "name": "id",
          "type": "uint256"
        }
      ],
      "name": "totalSupply",
      "outputs": [
        {
          "internalType": "uint256",
          "name": "",
          "type": "uint256"
        }
      ],
      "stateMutability": "view",
      "type": "function"
    },
    {
      "inputs": [
        {
          "internalType": "address",
          "name": "newOwner",
          "type": "address"
        }
      ],
      "name": "transferOwnership",
      "outputs": [],
      "stateMutability": "nonpayable",
      "type": "function"
    },
    {
      "inputs": [
        {
          "internalType": "uint256",
          "name": "",
          "type": "uint256"
        }
      ],
      "name": "uri",
      "outputs": [
        {
          "internalType": "string",
          "name": "",
          "type": "string"
        }
      ],
      "stateMutability": "view",
      "type": "function"
    }
  ],
  "bytecode": "0x60806040523480156200001157600080fd5b50620000226200002860201b60201c565b620001d3565b600060019054906101000a900460ff16156200007b576040517f08c379a0000000000000000000000000000000000000000000000000000000008152600401620000729062000127565b60405180910390fd5b60ff801660008054906101000a900460ff1660ff161015620000ed5760ff6000806101000a81548160ff021916908360ff1602179055507f7f26b83ff96e1f2b6a682f133852f6798a09c465da95921460cefb384740249860ff604051620000e4919062000149565b60405180910390a15b565b6000620000fe60278362000166565b91506200010b8262000184565b604082019050919050565b620001218162000177565b82525050565b600060208201905081810360008301526200014281620000ef565b9050919050565b600060208201905062000160600083018462000116565b92915050565b600082825260208201905092915050565b600060ff82169050919050565b7f496e697469616c697a61626c653a20636f6e747261637420697320696e69746960008201527f616c697a696e6700000000000000000000000000000000000000000000000000602082015250565b613a4e80620001e36000396000f3fe608060405234801561001057600080fd5b506004361061010a5760003560e01c8063715018a6116100a2578063a22cb46511610071578063a22cb465146102a1578063bd85b039146102bd578063e985e9c5146102ed578063f242432a1461031d578063f2fde38b146103395761010a565b8063715018a614610253578063731133e91461025d5780638129fc1c146102795780638da5cb5b146102835761010a565b80631f7fdffa116100de5780631f7fdffa146101bb5780632eb2c2d6146101d75780634e1273f4146101f35780634f558e79146102235761010a565b8062fdd58e1461010f57806301ffc9a71461013f57806302fe53051461016f5780630e89341c1461018b575b600080fd5b610129600480360381019061012491906127e6565b610355565b6040516101369190613073565b60405180910390f35b61015960048036038101906101549190612909565b61041f565b6040516101669190612e3b565b60405180910390f35b6101896004803603810190610184919061295b565b610501565b005b6101a560048036038101906101a0919061299c565b610515565b6040516101b29190612e71565b60405180910390f35b6101d560048036038101906101d091906126ff565b6105a9565b005b6101f160048036038101906101ec91906125b1565b6105c3565b005b61020d6004803603810190610208919061289d565b610664565b60405161021a9190612de2565b60405180910390f35b61023d6004803603810190610238919061299c565b610815565b60405161024a9190612e3b565b60405180910390f35b61025b610829565b005b61027760048036038101906102729190612822565b61083d565b005b61028161084f565b005b61028b6109ad565b6040516102989190612d05565b60405180910390f35b6102bb60048036038101906102b691906127aa565b6109d7565b005b6102d760048036038101906102d2919061299c565b6109ed565b6040516102e49190613073565b60405180910390f35b61030760048036038101906103029190612575565b610a0a565b6040516103149190612e3b565b60405180910390f35b61033760048036038101906103329190612670565b610a9e565b005b610353600480360381019061034e919061254c565b610b3f565b005b60008073ffffffffffffffffffffffffffffffffffffffff168373ffffffffffffffffffffffffffffffffffffffff1614156103c6576040517f08c379a00000000000000000000000000000000000000000000000000000000081526004016103bd90612f13565b60405180910390fd5b6065600083815260200190815260200160002060008473ffffffffffffffffffffffffffffffffffffffff1673ffffffffffffffffffffffffffffffffffffffff16815260200190815260200160002054905092915050565b60007fd9b67a26000000000000000000000000000000000000000000000000000000007bffffffffffffffffffffffffffffffffffffffffffffffffffffffff1916827bffffffffffffffffffffffffffffffffffffffffffffffffffffffff191614806104ea57507f0e89341c000000000000000000000000000000000000000000000000000000007bffffffffffffffffffffffffffffffffffffffffffffffffffffffff1916827bffffffffffffffffffffffffffffffffffffffffffffffffffffffff1916145b806104fa57506104f982610bc3565b5b9050919050565b610509610c2d565b61051281610cab565b50565b60606067805461052490613332565b80601f016020809104026020016040519081016040528092919081815260200182805461055090613332565b801561059d5780601f106105725761010080835404028352916020019161059d565b820191906000526020600020905b81548152906001019060200180831161058057829003601f168201915b50505050509050919050565b6105b1610c2d565b6105bd84848484610cc5565b50505050565b6105cb610f3f565b73ffffffffffffffffffffffffffffffffffffffff168573ffffffffffffffffffffffffffffffffffffffff16148061061157506106108561060b610f3f565b610a0a565b5b610650576040517f08c379a000000000000000000000000000000000000000000000000000000000815260040161064790612eb3565b60405180910390fd5b61065d8585858585610f47565b5050505050565b606081518351146106aa576040517f08c379a00000000000000000000000000000000000000000000000000000000081526004016106a190613013565b60405180910390fd5b6000835167ffffffffffffffff8111156106ed577f4e487b7100000000000000000000000000000000000000000000000000000000600052604160045260246000fd5b60405190808252806020026020018201604052801561071b5781602001602082028036833780820191505090505b50905060005b845181101561080a576107b4858281518110610766577f4e487b7100000000000000000000000000000000000000000000000000000000600052603260045260246000fd5b60200260200101518583815181106107a7577f4e487b7100000000000000000000000000000000000000000000000000000000600052603260045260246000fd5b6020026020010151610355565b8282815181106107ed577f4e487b7100000000000000000000000000000000000000000000000000000000600052603260045260246000fd5b6020026020010181815250508061080390613395565b9050610721565b508091505092915050565b600080610821836109ed565b119050919050565b610831610c2d565b61083b60006112b8565b565b6108498484848461137e565b50505050565b60008060019054906101000a900460ff161590508080156108805750600160008054906101000a900460ff1660ff16105b806108ad575061088f30611530565b1580156108ac5750600160008054906101000a900460ff1660ff16145b5b6108ec576040517f08c379a00000000000000000000000000000000000000000000000000000000081526004016108e390612f53565b60405180910390fd5b60016000806101000a81548160ff021916908360ff1602179055508015610929576001600060016101000a81548160ff0219169083151502179055505b61094160405180602001604052806000815250611553565b6109496115ae565b610951611607565b80156109aa5760008060016101000a81548160ff0219169083151502179055507f7f26b83ff96e1f2b6a682f133852f6798a09c465da95921460cefb384740249860016040516109a19190612e56565b60405180910390a15b50565b6000609760009054906101000a900473ffffffffffffffffffffffffffffffffffffffff16905090565b6109e96109e2610f3f565b8383611658565b5050565b600060c96000838152602001908152602001600020549050919050565b6000606660008473ffffffffffffffffffffffffffffffffffffffff1673ffffffffffffffffffffffffffffffffffffffff16815260200190815260200160002060008373ffffffffffffffffffffffffffffffffffffffff1673ffffffffffffffffffffffffffffffffffffffff16815260200190815260200160002060009054906101000a900460ff16905092915050565b610aa6610f3f565b73ffffffffffffffffffffffffffffffffffffffff168573ffffffffffffffffffffffffffffffffffffffff161480610aec5750610aeb85610ae6610f3f565b610a0a565b5b610b2b576040517f08c379a0000000000000000000000000000000000000000000000000000000008152600401610b2290612eb3565b60405180910390fd5b610b3885858585856117c5565b5050505050565b610b47610c2d565b600073ffffffffffffffffffffffffffffffffffffffff168173ffffffffffffffffffffffffffffffffffffffff161415610bb7576040517f08c379a0000000000000000000000000000000000000000000000000000000008152600401610bae90612ef3565b60405180910390fd5b610bc0816112b8565b50565b60007f01ffc9a7000000000000000000000000000000000000000000000000000000007bffffffffffffffffffffffffffffffffffffffffffffffffffffffff1916827bffffffffffffffffffffffffffffffffffffffffffffffffffffffff1916149050919050565b610c35610f3f565b73ffffffffffffffffffffffffffffffffffffffff16610c536109ad565b73ffffffffffffffffffffffffffffffffffffffff1614610ca9576040517f08c379a0000000000000000000000000000000000000000000000000000000008152600401610ca090612f93565b60405180910390fd5b565b8060679080519060200190610cc1929190612244565b5050565b600073ffffffffffffffffffffffffffffffffffffffff168473ffffffffffffffffffffffffffffffffffffffff161415610d35576040517f08c379a0000000000000000000000000000000000000000000000000000000008152600401610d2c90613053565b60405180910390fd5b8151835114610d79576040517f08c379a0000000000000000000000000000000000000000000000000000000008152600401610d7090613033565b60405180910390fd5b6000610d83610f3f565b9050610d9481600087878787611a64565b60005b8451811015610e9a57838181518110610dd9577f4e487b7100000000000000000000000000000000000000000000000000000000600052603260045260246000fd5b602002602001015160656000878481518110610e1e577f4e487b7100000000000000000000000000000000000000000000000000000000600052603260045260246000fd5b6020026020010151815260200190815260200160002060008873ffffffffffffffffffffffffffffffffffffffff1673ffffffffffffffffffffffffffffffffffffffff1681526020019081526020016000206000828254610e809190613207565b925050819055508080610e9290613395565b915050610d97565b508473ffffffffffffffffffffffffffffffffffffffff16600073ffffffffffffffffffffffffffffffffffffffff168273ffffffffffffffffffffffffffffffffffffffff167f4a39dc06d4c0dbc64b70af90fd698a233a518aa5d07e595d983b8c0526c8f7fb8787604051610f12929190612e04565b60405180910390a4610f2981600087878787611a7a565b610f3881600087878787611a82565b5050505050565b600033905090565b8151835114610f8b576040517f08c379a0000000000000000000000000000000000000000000000000000000008152600401610f8290613033565b60405180910390fd5b600073ffffffffffffffffffffffffffffffffffffffff168473ffffffffffffffffffffffffffffffffffffffff161415610ffb576040517f08c379a0000000000000000000000000000000000000000000000000000000008152600401610ff290612f33565b60405180910390fd5b6000611005610f3f565b9050611015818787878787611a64565b60005b845181101561121557600085828151811061105c577f4e487b7100000000000000000000000000000000000000000000000000000000600052603260045260246000fd5b6020026020010151905060008583815181106110a1577f4e487b7100000000000000000000000000000000000000000000000000000000600052603260045260246000fd5b6020026020010151905060006065600084815260200190815260200160002060008b73ffffffffffffffffffffffffffffffffffffffff1673ffffffffffffffffffffffffffffffffffffffff16815260200190815260200160002054905081811015611143576040517f08c379a000000000000000000000000000000000000000000000000000000000815260040161113a90612f73565b60405180910390fd5b8181036065600085815260200190815260200160002060008c73ffffffffffffffffffffffffffffffffffffffff1673ffffffffffffffffffffffffffffffffffffffff16815260200190815260200160002081905550816065600085815260200190815260200160002060008b73ffffffffffffffffffffffffffffffffffffffff1673ffffffffffffffffffffffffffffffffffffffff16815260200190815260200160002060008282546111fa9190613207565b925050819055505050508061120e90613395565b9050611018565b508473ffffffffffffffffffffffffffffffffffffffff168673ffffffffffffffffffffffffffffffffffffffff168273ffffffffffffffffffffffffffffffffffffffff167f4a39dc06d4c0dbc64b70af90fd698a233a518aa5d07e595d983b8c0526c8f7fb878760405161128c929190612e04565b60405180910390a46112a2818787878787611a7a565b6112b0818787878787611a82565b505050505050565b6000609760009054906101000a900473ffffffffffffffffffffffffffffffffffffffff16905081609760006101000a81548173ffffffffffffffffffffffffffffffffffffffff021916908373ffffffffffffffffffffffffffffffffffffffff1602179055508173ffffffffffffffffffffffffffffffffffffffff168173ffffffffffffffffffffffffffffffffffffffff167f8be0079c531659141344cd1fd0a4f28419497f9722a3daafe3b4186f6b6457e060405160405180910390a35050565b600073ffffffffffffffffffffffffffffffffffffffff168473ffffffffffffffffffffffffffffffffffffffff1614156113ee576040517f08c379a00000000000000000000000000000000000000000000000000000000081526004016113e590613053565b60405180910390fd5b60006113f8610f3f565b9050600061140585611c69565b9050600061141285611c69565b905061142383600089858589611a64565b846065600088815260200190815260200160002060008973ffffffffffffffffffffffffffffffffffffffff1673ffffffffffffffffffffffffffffffffffffffff16815260200190815260200160002060008282546114839190613207565b925050819055508673ffffffffffffffffffffffffffffffffffffffff16600073ffffffffffffffffffffffffffffffffffffffff168473ffffffffffffffffffffffffffffffffffffffff167fc3d58168c5ae7397731d063d5bbf3d657854427343f4c083240f7aacaa2d0f62898960405161150192919061308e565b60405180910390a461151883600089858589611a7a565b61152783600089898989611d2f565b50505050505050565b6000808273ffffffffffffffffffffffffffffffffffffffff163b119050919050565b600060019054906101000a900460ff166115a2576040517f08c379a000000000000000000000000000000000000000000000000000000000815260040161159990612fd3565b60405180910390fd5b6115ab81611f16565b50565b600060019054906101000a900460ff166115fd576040517f08c379a00000000000000000000000000000000000000000000000000000000081526004016115f490612fd3565b60405180910390fd5b611605611f71565b565b600060019054906101000a900460ff16611656576040517f08c379a000000000000000000000000000000000000000000000000000000000815260040161164d90612fd3565b60405180910390fd5b565b8173ffffffffffffffffffffffffffffffffffffffff168373ffffffffffffffffffffffffffffffffffffffff1614156116c7576040517f08c379a00000000000000000000000000000000000000000000000000000000081526004016116be90612ff3565b60405180910390fd5b80606660008573ffffffffffffffffffffffffffffffffffffffff1673ffffffffffffffffffffffffffffffffffffffff16815260200190815260200160002060008473ffffffffffffffffffffffffffffffffffffffff1673ffffffffffffffffffffffffffffffffffffffff16815260200190815260200160002060006101000a81548160ff0219169083151502179055508173ffffffffffffffffffffffffffffffffffffffff168373ffffffffffffffffffffffffffffffffffffffff167f17307eab39ab6107e8899845ad3d59bd9653f200f220920489ca2b5937696c31836040516117b89190612e3b565b60405180910390a3505050565b600073ffffffffffffffffffffffffffffffffffffffff168473ffffffffffffffffffffffffffffffffffffffff161415611835576040517f08c379a000000000000000000000000000000000000000000000000000000000815260040161182c90612f33565b60405180910390fd5b600061183f610f3f565b9050600061184c85611c69565b9050600061185985611c69565b9050611869838989858589611a64565b60006065600088815260200190815260200160002060008a73ffffffffffffffffffffffffffffffffffffffff1673ffffffffffffffffffffffffffffffffffffffff16815260200190815260200160002054905085811015611901576040517f08c379a00000000000000000000000000000000000000000000000000000000081526004016118f890612f73565b60405180910390fd5b8581036065600089815260200190815260200160002060008b73ffffffffffffffffffffffffffffffffffffffff1673ffffffffffffffffffffffffffffffffffffffff16815260200190815260200160002081905550856065600089815260200190815260200160002060008a73ffffffffffffffffffffffffffffffffffffffff1673ffffffffffffffffffffffffffffffffffffffff16815260200190815260200160002060008282546119b89190613207565b925050819055508773ffffffffffffffffffffffffffffffffffffffff168973ffffffffffffffffffffffffffffffffffffffff168573ffffffffffffffffffffffffffffffffffffffff167fc3d58168c5ae7397731d063d5bbf3d657854427343f4c083240f7aacaa2d0f628a8a604051611a3592919061308e565b60405180910390a4611a4b848a8a86868a611a7a565b611a59848a8a8a8a8a611d2f565b505050505050505050565b611a72868686868686611fd2565b505050505050565b505050505050565b611aa18473ffffffffffffffffffffffffffffffffffffffff16611530565b15611c61578373ffffffffffffffffffffffffffffffffffffffff1663bc197c8187878686866040518663ffffffff1660e01b8152600401611ae7959493929190612d20565b602060405180830381600087803b158015611b0157600080fd5b505af1925050508015611b3257506040513d601f19601f82011682018060405250810190611b2f9190612932565b60015b611bd857611b3e61346b565b806308c379a01415611b9b5750611b53613926565b80611b5e5750611b9d565b806040517f08c379a0000000000000000000000000000000000000000000000000000000008152600401611b929190612e71565b60405180910390fd5b505b6040517f08c379a0000000000000000000000000000000000000000000000000000000008152600401611bcf90612e93565b60405180910390fd5b63bc197c8160e01b7bffffffffffffffffffffffffffffffffffffffffffffffffffffffff1916817bffffffffffffffffffffffffffffffffffffffffffffffffffffffff191614611c5f576040517f08c379a0000000000000000000000000000000000000000000000000000000008152600401611c5690612ed3565b60405180910390fd5b505b505050505050565b60606000600167ffffffffffffffff811115611cae577f4e487b7100000000000000000000000000000000000000000000000000000000600052604160045260246000fd5b604051908082528060200260200182016040528015611cdc5781602001602082028036833780820191505090505b5090508281600081518110611d1a577f4e487b7100000000000000000000000000000000000000000000000000000000600052603260045260246000fd5b60200260200101818152505080915050919050565b611d4e8473ffffffffffffffffffffffffffffffffffffffff16611530565b15611f0e578373ffffffffffffffffffffffffffffffffffffffff1663f23a6e6187878686866040518663ffffffff1660e01b8152600401611d94959493929190612d88565b602060405180830381600087803b158015611dae57600080fd5b505af1925050508015611ddf57506040513d601f19601f82011682018060405250810190611ddc9190612932565b60015b611e8557611deb61346b565b806308c379a01415611e485750611e00613926565b80611e0b5750611e4a565b806040517f08c379a0000000000000000000000000000000000000000000000000000000008152600401611e3f9190612e71565b60405180910390fd5b505b6040517f08c379a0000000000000000000000000000000000000000000000000000000008152600401611e7c90612e93565b60405180910390fd5b63f23a6e6160e01b7bffffffffffffffffffffffffffffffffffffffffffffffffffffffff1916817bffffffffffffffffffffffffffffffffffffffffffffffffffffffff191614611f0c576040517f08c379a0000000000000000000000000000000000000000000000000000000008152600401611f0390612ed3565b60405180910390fd5b505b505050505050565b600060019054906101000a900460ff16611f65576040517f08c379a0000000000000000000000000000000000000000000000000000000008152600401611f5c90612fd3565b60405180910390fd5b611f6e81610cab565b50565b600060019054906101000a900460ff16611fc0576040517f08c379a0000000000000000000000000000000000000000000000000000000008152600401611fb790612fd3565b60405180910390fd5b611fd0611fcb610f3f565b6112b8565b565b611fe086868686868661223c565b600073ffffffffffffffffffffffffffffffffffffffff168573ffffffffffffffffffffffffffffffffffffffff1614156120de5760005b83518110156120dc5782818151811061205a577f4e487b7100000000000000000000000000000000000000000000000000000000600052603260045260246000fd5b602002602001015160c9600086848151811061209f577f4e487b7100000000000000000000000000000000000000000000000000000000600052603260045260246000fd5b6020026020010151815260200190815260200160002060008282546120c49190613207565b92505081905550806120d590613395565b9050612018565b505b600073ffffffffffffffffffffffffffffffffffffffff168473ffffffffffffffffffffffffffffffffffffffff1614156122345760005b835181101561223257600084828151811061215a577f4e487b7100000000000000000000000000000000000000000000000000000000600052603260045260246000fd5b60200260200101519050600084838151811061219f577f4e487b7100000000000000000000000000000000000000000000000000000000600052603260045260246000fd5b60200260200101519050600060c9600084815260200190815260200160002054905081811015612204576040517f08c379a00000000000000000000000000000000000000000000000000000000081526004016121fb90612fb3565b60405180910390fd5b81810360c96000858152602001908152602001600020819055505050508061222b90613395565b9050612116565b505b505050505050565b505050505050565b82805461225090613332565b90600052602060002090601f01602090048101928261227257600085556122b9565b82601f1061228b57805160ff19168380011785556122b9565b828001600101855582156122b9579182015b828111156122b857825182559160200191906001019061229d565b5b5090506122c691906122ca565b5090565b5b808211156122e35760008160009055506001016122cb565b5090565b60006122fa6122f5846130dc565b6130b7565b9050808382526020820190508285602086028201111561231957600080fd5b60005b85811015612349578161232f888261243b565b84526020840193506020830192505060018101905061231c565b5050509392505050565b600061236661236184613108565b6130b7565b9050808382526020820190508285602086028201111561238557600080fd5b60005b858110156123b5578161239b8882612537565b845260208401935060208301925050600181019050612388565b5050509392505050565b60006123d26123cd84613134565b6130b7565b9050828152602081018484840111156123ea57600080fd5b6123f58482856132f0565b509392505050565b600061241061240b84613165565b6130b7565b90508281526020810184848401111561242857600080fd5b6124338482856132f0565b509392505050565b60008135905061244a816139bc565b92915050565b600082601f83011261246157600080fd5b81356124718482602086016122e7565b91505092915050565b600082601f83011261248b57600080fd5b813561249b848260208601612353565b91505092915050565b6000813590506124b3816139d3565b92915050565b6000813590506124c8816139ea565b92915050565b6000815190506124dd816139ea565b92915050565b600082601f8301126124f457600080fd5b81356125048482602086016123bf565b91505092915050565b600082601f83011261251e57600080fd5b813561252e8482602086016123fd565b91505092915050565b60008135905061254681613a01565b92915050565b60006020828403121561255e57600080fd5b600061256c8482850161243b565b91505092915050565b6000806040838503121561258857600080fd5b60006125968582860161243b565b92505060206125a78582860161243b565b9150509250929050565b600080600080600060a086880312156125c957600080fd5b60006125d78882890161243b565b95505060206125e88882890161243b565b945050604086013567ffffffffffffffff81111561260557600080fd5b6126118882890161247a565b935050606086013567ffffffffffffffff81111561262e57600080fd5b61263a8882890161247a565b925050608086013567ffffffffffffffff81111561265757600080fd5b612663888289016124e3565b9150509295509295909350565b600080600080600060a0868803121561268857600080fd5b60006126968882890161243b565b95505060206126a78882890161243b565b94505060406126b888828901612537565b93505060606126c988828901612537565b925050608086013567ffffffffffffffff8111156126e657600080fd5b6126f2888289016124e3565b9150509295509295909350565b6000806000806080858703121561271557600080fd5b60006127238782880161243b565b945050602085013567ffffffffffffffff81111561274057600080fd5b61274c8782880161247a565b935050604085013567ffffffffffffffff81111561276957600080fd5b6127758782880161247a565b925050606085013567ffffffffffffffff81111561279257600080fd5b61279e878288016124e3565b91505092959194509250565b600080604083850312156127bd57600080fd5b60006127cb8582860161243b565b92505060206127dc858286016124a4565b9150509250929050565b600080604083850312156127f957600080fd5b60006128078582860161243b565b925050602061281885828601612537565b9150509250929050565b6000806000806080858703121561283857600080fd5b60006128468782880161243b565b945050602061285787828801612537565b935050604061286887828801612537565b925050606085013567ffffffffffffffff81111561288557600080fd5b612891878288016124e3565b91505092959194509250565b600080604083850312156128b057600080fd5b600083013567ffffffffffffffff8111156128ca57600080fd5b6128d685828601612450565b925050602083013567ffffffffffffffff8111156128f357600080fd5b6128ff8582860161247a565b9150509250929050565b60006020828403121561291b57600080fd5b6000612929848285016124b9565b91505092915050565b60006020828403121561294457600080fd5b6000612952848285016124ce565b91505092915050565b60006020828403121561296d57600080fd5b600082013567ffffffffffffffff81111561298757600080fd5b6129938482850161250d565b91505092915050565b6000602082840312156129ae57600080fd5b60006129bc84828501612537565b91505092915050565b60006129d18383612ce7565b60208301905092915050565b6129e68161325d565b82525050565b60006129f7826131a6565b612a0181856131d4565b9350612a0c83613196565b8060005b83811015612a3d578151612a2488826129c5565b9750612a2f836131c7565b925050600181019050612a10565b5085935050505092915050565b612a538161326f565b82525050565b6000612a64826131b1565b612a6e81856131e5565b9350612a7e8185602086016132ff565b612a878161348d565b840191505092915050565b612a9b816132de565b82525050565b6000612aac826131bc565b612ab681856131f6565b9350612ac68185602086016132ff565b612acf8161348d565b840191505092915050565b6000612ae76034836131f6565b9150612af2826134ab565b604082019050919050565b6000612b0a602f836131f6565b9150612b15826134fa565b604082019050919050565b6000612b2d6028836131f6565b9150612b3882613549565b604082019050919050565b6000612b506026836131f6565b9150612b5b82613598565b604082019050919050565b6000612b73602a836131f6565b9150612b7e826135e7565b604082019050919050565b6000612b966025836131f6565b9150612ba182613636565b604082019050919050565b6000612bb9602e836131f6565b9150612bc482613685565b604082019050919050565b6000612bdc602a836131f6565b9150612be7826136d4565b604082019050919050565b6000612bff6020836131f6565b9150612c0a82613723565b602082019050919050565b6000612c226028836131f6565b9150612c2d8261374c565b604082019050919050565b6000612c45602b836131f6565b9150612c508261379b565b604082019050919050565b6000612c686029836131f6565b9150612c73826137ea565b604082019050919050565b6000612c8b6029836131f6565b9150612c9682613839565b604082019050919050565b6000612cae6028836131f6565b9150612cb982613888565b604082019050919050565b6000612cd16021836131f6565b9150612cdc826138d7565b604082019050919050565b612cf0816132c7565b82525050565b612cff816132c7565b82525050565b6000602082019050612d1a60008301846129dd565b92915050565b600060a082019050612d3560008301886129dd565b612d4260208301876129dd565b8181036040830152612d5481866129ec565b90508181036060830152612d6881856129ec565b90508181036080830152612d7c8184612a59565b90509695505050505050565b600060a082019050612d9d60008301886129dd565b612daa60208301876129dd565b612db76040830186612cf6565b612dc46060830185612cf6565b8181036080830152612dd68184612a59565b90509695505050505050565b60006020820190508181036000830152612dfc81846129ec565b905092915050565b60006040820190508181036000830152612e1e81856129ec565b90508181036020830152612e3281846129ec565b90509392505050565b6000602082019050612e506000830184612a4a565b92915050565b6000602082019050612e6b6000830184612a92565b92915050565b60006020820190508181036000830152612e8b8184612aa1565b905092915050565b60006020820190508181036000830152612eac81612ada565b9050919050565b60006020820190508181036000830152612ecc81612afd565b9050919050565b60006020820190508181036000830152612eec81612b20565b9050919050565b60006020820190508181036000830152612f0c81612b43565b9050919050565b60006020820190508181036000830152612f2c81612b66565b9050919050565b60006020820190508181036000830152612f4c81612b89565b9050919050565b60006020820190508181036000830152612f6c81612bac565b9050919050565b60006020820190508181036000830152612f8c81612bcf565b9050919050565b60006020820190508181036000830152612fac81612bf2565b9050919050565b60006020820190508181036000830152612fcc81612c15565b9050919050565b60006020820190508181036000830152612fec81612c38565b9050919050565b6000602082019050818103600083015261300c81612c5b565b9050919050565b6000602082019050818103600083015261302c81612c7e565b9050919050565b6000602082019050818103600083015261304c81612ca1565b9050919050565b6000602082019050818103600083015261306c81612cc4565b9050919050565b60006020820190506130886000830184612cf6565b92915050565b60006040820190506130a36000830185612cf6565b6130b06020830184612cf6565b9392505050565b60006130c16130d2565b90506130cd8282613364565b919050565b6000604051905090565b600067ffffffffffffffff8211156130f7576130f661343c565b5b602082029050602081019050919050565b600067ffffffffffffffff8211156131235761312261343c565b5b602082029050602081019050919050565b600067ffffffffffffffff82111561314f5761314e61343c565b5b6131588261348d565b9050602081019050919050565b600067ffffffffffffffff8211156131805761317f61343c565b5b6131898261348d565b9050602081019050919050565b6000819050602082019050919050565b600081519050919050565b600081519050919050565b600081519050919050565b6000602082019050919050565b600082825260208201905092915050565b600082825260208201905092915050565b600082825260208201905092915050565b6000613212826132c7565b915061321d836132c7565b9250827fffffffffffffffffffffffffffffffffffffffffffffffffffffffffffffffff03821115613252576132516133de565b5b828201905092915050565b6000613268826132a7565b9050919050565b60008115159050919050565b60007fffffffff0000000000000000000000000000000000000000000000000000000082169050919050565b600073ffffffffffffffffffffffffffffffffffffffff82169050919050565b6000819050919050565b600060ff82169050919050565b60006132e9826132d1565b9050919050565b82818337600083830152505050565b60005b8381101561331d578082015181840152602081019050613302565b8381111561332c576000848401525b50505050565b6000600282049050600182168061334a57607f821691505b6020821081141561335e5761335d61340d565b5b50919050565b61336d8261348d565b810181811067ffffffffffffffff8211171561338c5761338b61343c565b5b80604052505050565b60006133a0826132c7565b91507fffffffffffffffffffffffffffffffffffffffffffffffffffffffffffffffff8214156133d3576133d26133de565b5b600182019050919050565b7f4e487b7100000000000000000000000000000000000000000000000000000000600052601160045260246000fd5b7f4e487b7100000000000000000000000000000000000000000000000000000000600052602260045260246000fd5b7f4e487b7100000000000000000000000000000000000000000000000000000000600052604160045260246000fd5b600060033d111561348a5760046000803e61348760005161349e565b90505b90565b6000601f19601f8301169050919050565b60008160e01c9050919050565b7f455243313135353a207472616e7366657220746f206e6f6e204552433131353560008201527f526563656976657220696d706c656d656e746572000000000000000000000000602082015250565b7f455243313135353a2063616c6c6572206973206e6f7420746f6b656e206f776e60008201527f6572206e6f7220617070726f7665640000000000000000000000000000000000602082015250565b7f455243313135353a204552433131353552656365697665722072656a6563746560008201527f6420746f6b656e73000000000000000000000000000000000000000000000000602082015250565b7f4f776e61626c653a206e6577206f776e657220697320746865207a65726f206160008201527f6464726573730000000000000000000000000000000000000000000000000000602082015250565b7f455243313135353a2061646472657373207a65726f206973206e6f742061207660008201527f616c6964206f776e657200000000000000000000000000000000000000000000602082015250565b7f455243313135353a207472616e7366657220746f20746865207a65726f20616460008201527f6472657373000000000000000000000000000000000000000000000000000000602082015250565b7f496e697469616c697a61626c653a20636f6e747261637420697320616c72656160008201527f647920696e697469616c697a6564000000000000000000000000000000000000602082015250565b7f455243313135353a20696e73756666696369656e742062616c616e636520666f60008201527f72207472616e7366657200000000000000000000000000000000000000000000602082015250565b7f4f776e61626c653a2063616c6c6572206973206e6f7420746865206f776e6572600082015250565b7f455243313135353a206275726e20616d6f756e74206578636565647320746f7460008201527f616c537570706c79000000000000000000000000000000000000000000000000602082015250565b7f496e697469616c697a61626c653a20636f6e7472616374206973206e6f74206960008201527f6e697469616c697a696e67000000000000000000000000000000000000000000602082015250565b7f455243313135353a2073657474696e6720617070726f76616c2073746174757360008201527f20666f722073656c660000000000000000000000000000000000000000000000602082015250565b7f455243313135353a206163636f756e747320616e6420696473206c656e67746860008201527f206d69736d617463680000000000000000000000000000000000000000000000602082015250565b7f455243313135353a2069647320616e6420616d6f756e7473206c656e6774682060008201527f6d69736d61746368000000000000000000000000000000000000000000000000602082015250565b7f455243313135353a206d696e7420746f20746865207a65726f2061646472657360008201527f7300000000000000000000000000000000000000000000000000000000000000602082015250565b600060443d1015613936576139b9565b61393e6130d2565b60043d036004823e80513d602482011167ffffffffffffffff821117156139665750506139b9565b808201805167ffffffffffffffff81111561398457505050506139b9565b80602083010160043d0385018111156139a15750505050506139b9565b6139b082602001850186613364565b82955050505050505b90565b6139c58161325d565b81146139d057600080fd5b50565b6139dc8161326f565b81146139e757600080fd5b50565b6139f38161327b565b81146139fe57600080fd5b50565b613a0a816132c7565b8114613a1557600080fd5b5056fea264697066735822122082c2cf697e2649a9fd749f2d391f11d31f685c60549a5ddbed1e1810395f613764736f6c63430008040033",
  "linkReferences": {},
  "deployedLinkReferences": {}
}