{
  "_format": "hh-sol-artifact-1",
  "contractName": "DocTokenV1",
  "sourceName": "contracts/DocTokenV1.sol",
  "abi": [
    {
      "inputs": [],
      "stateMutability": "nonpayable",
      "type": "constructor"
    },
    {
      "anonymous": false,
      "inputs": [
        {
          "indexed": true,
          "internalType": "address",
          "name": "account",
          "type": "address"
        },
        {
          "indexed": true,
          "internalType": "address",
          "name": "operator",
          "type": "address"
        },
        {
          "indexed": false,
          "internalType": "bool",
          "name": "approved",
          "type": "bool"
        }
      ],
      "name": "ApprovalForAll",
      "type": "event"
    },
    {
      "anonymous": false,
      "inputs": [
        {
          "indexed": false,
          "internalType": "uint8",
          "name": "version",
          "type": "uint8"
        }
      ],
      "name": "Initialized",
      "type": "event"
    },
    {
      "anonymous": false,
      "inputs": [
        {
          "indexed": true,
          "internalType": "address",
          "name": "previousOwner",
          "type": "address"
        },
        {
          "indexed": true,
          "internalType": "address",
          "name": "newOwner",
          "type": "address"
        }
      ],
      "name": "OwnershipTransferred",
      "type": "event"
    },
    {
      "anonymous": false,
      "inputs": [
        {
          "indexed": true,
          "internalType": "address",
          "name": "operator",
          "type": "address"
        },
        {
          "indexed": true,
          "internalType": "address",
          "name": "from",
          "type": "address"
        },
        {
          "indexed": true,
          "internalType": "address",
          "name": "to",
          "type": "address"
        },
        {
          "indexed": false,
          "internalType": "uint256[]",
          "name": "ids",
          "type": "uint256[]"
        },
        {
          "indexed": false,
          "internalType": "uint256[]",
          "name": "values",
          "type": "uint256[]"
        }
      ],
      "name": "TransferBatch",
      "type": "event"
    },
    {
      "anonymous": false,
      "inputs": [
        {
          "indexed": true,
          "internalType": "address",
          "name": "operator",
          "type": "address"
        },
        {
          "indexed": true,
          "internalType": "address",
          "name": "from",
          "type": "address"
        },
        {
          "indexed": true,
          "internalType": "address",
          "name": "to",
          "type": "address"
        },
        {
          "indexed": false,
          "internalType": "uint256",
          "name": "id",
          "type": "uint256"
        },
        {
          "indexed": false,
          "internalType": "uint256",
          "name": "value",
          "type": "uint256"
        }
      ],
      "name": "TransferSingle",
      "type": "event"
    },
    {
      "anonymous": false,
      "inputs": [
        {
          "indexed": false,
          "internalType": "string",
          "name": "value",
          "type": "string"
        },
        {
          "indexed": true,
          "internalType": "uint256",
          "name": "id",
          "type": "uint256"
        }
      ],
      "name": "URI",
      "type": "event"
    },
    {
      "inputs": [
        {
          "internalType": "address",
          "name": "account",
          "type": "address"
        },
        {
          "internalType": "uint256",
          "name": "id",
          "type": "uint256"
        }
      ],
      "name": "balanceOf",
      "outputs": [
        {
          "internalType": "uint256",
          "name": "",
          "type": "uint256"
        }
      ],
      "stateMutability": "view",
      "type": "function"
    },
    {
      "inputs": [
        {
          "internalType": "address[]",
          "name": "accounts",
          "type": "address[]"
        },
        {
          "internalType": "uint256[]",
          "name": "ids",
          "type": "uint256[]"
        }
      ],
      "name": "balanceOfBatch",
      "outputs": [
        {
          "internalType": "uint256[]",
          "name": "",
          "type": "uint256[]"
        }
      ],
      "stateMutability": "view",
      "type": "function"
    },
    {
      "inputs": [
        {
          "internalType": "uint256",
          "name": "id",
          "type": "uint256"
        }
      ],
      "name": "exists",
      "outputs": [
        {
          "internalType": "bool",
          "name": "",
          "type": "bool"
        }
      ],
      "stateMutability": "view",
      "type": "function"
    },
    {
      "inputs": [],
      "name": "initialize",
      "outputs": [],
      "stateMutability": "nonpayable",
      "type": "function"
    },
    {
      "inputs": [
        {
          "internalType": "address",
          "name": "account",
          "type": "address"
        },
        {
          "internalType": "address",
          "name": "operator",
          "type": "address"
        }
      ],
      "name": "isApprovedForAll",
      "outputs": [
        {
          "internalType": "bool",
          "name": "",
          "type": "bool"
        }
      ],
      "stateMutability": "view",
      "type": "function"
    },
    {
      "inputs": [
        {
          "internalType": "address",
          "name": "account",
          "type": "address"
        },
        {
          "internalType": "uint256",
          "name": "id",
          "type": "uint256"
        },
        {
          "internalType": "uint256",
          "name": "amount",
          "type": "uint256"
        },
        {
          "internalType": "bytes",
          "name": "data",
          "type": "bytes"
        }
      ],
      "name": "mint",
      "outputs": [],
      "stateMutability": "nonpayable",
      "type": "function"
    },
    {
      "inputs": [
        {
          "internalType": "address",
          "name": "to",
          "type": "address"
        },
        {
          "internalType": "uint256[]",
          "name": "ids",
          "type": "uint256[]"
        },
        {
          "internalType": "uint256[]",
          "name": "amounts",
          "type": "uint256[]"
        },
        {
          "internalType": "bytes",
          "name": "data",
          "type": "bytes"
        }
      ],
      "name": "mintBatch",
      "outputs": [],
      "stateMutability": "nonpayable",
      "type": "function"
    },
    {
      "inputs": [],
      "name": "owner",
      "outputs": [
        {
          "internalType": "address",
          "name": "",
          "type": "address"
        }
      ],
      "stateMutability": "view",
      "type": "function"
    },
    {
      "inputs": [],
      "name": "renounceOwnership",
      "outputs": [],
      "stateMutability": "nonpayable",
      "type": "function"
    },
    {
      "inputs": [
        {
          "internalType": "address",
          "name": "from",
          "type": "address"
        },
        {
          "internalType": "address",
          "name": "to",
          "type": "address"
        },
        {
          "internalType": "uint256[]",
          "name": "ids",
          "type": "uint256[]"
        },
        {
          "internalType": "uint256[]",
          "name": "amounts",
          "type": "uint256[]"
        },
        {
          "internalType": "bytes",
          "name": "data",
          "type": "bytes"
        }
      ],
      "name": "safeBatchTransferFrom",
      "outputs": [],
      "stateMutability": "nonpayable",
      "type": "function"
    },
    {
      "inputs": [
        {
          "internalType": "address",
          "name": "from",
          "type": "address"
        },
        {
          "internalType": "address",
          "name": "to",
          "type": "address"
        },
        {
          "internalType": "uint256",
          "name": "id",
          "type": "uint256"
        },
        {
          "internalType": "uint256",
          "name": "amount",
          "type": "uint256"
        },
        {
          "internalType": "bytes",
          "name": "data",
          "type": "bytes"
        }
      ],
      "name": "safeTransferFrom",
      "outputs": [],
      "stateMutability": "nonpayable",
      "type": "function"
    },
    {
      "inputs": [
        {
          "internalType": "address",
          "name": "operator",
          "type": "address"
        },
        {
          "internalType": "bool",
          "name": "approved",
          "type": "bool"
        }
      ],
      "name": "setApprovalForAll",
      "outputs": [],
      "stateMutability": "nonpayable",
      "type": "function"
    },
    {
      "inputs": [
        {
          "internalType": "string",
          "name": "newuri",
          "type": "string"
        }
      ],
      "name": "setURI",
      "outputs": [],
      "stateMutability": "nonpayable",
      "type": "function"
    },
    {
      "inputs": [
        {
          "internalType": "bytes4",
          "name": "interfaceId",
          "type": "bytes4"
        }
      ],
      "name": "supportsInterface",
      "outputs": [
        {
          "internalType": "bool",
          "name": "",
          "type": "bool"
        }
      ],
      "stateMutability": "view",
      "type": "function"
    },
    {
      "inputs": [
        {
          "internalType": "uint256",
          "name": "id",
          "type": "uint256"
        }
      ],
      "name": "totalSupply",
      "outputs": [
        {
          "internalType": "uint256",
          "name": "",
          "type": "uint256"
        }
      ],
      "stateMutability": "view",
      "type": "function"
    },
    {
      "inputs": [
        {
          "internalType": "address",
          "name": "newOwner",
          "type": "address"
        }
      ],
      "name": "transferOwnership",
      "outputs": [],
      "stateMutability": "nonpayable",
      "type": "function"
    },
    {
      "inputs": [
        {
          "internalType": "uint256",
          "name": "",
          "type": "uint256"
        }
      ],
      "name": "uri",
      "outputs": [
        {
          "internalType": "string",
          "name": "",
          "type": "string"
        }
      ],
      "stateMutability": "view",
      "type": "function"
    }
  ],
  "bytecode": "0x60806040523480156200001157600080fd5b50620000226200002860201b60201c565b620001d3565b600060019054906101000a900460ff16156200007b576040517f08c379a0000000000000000000000000000000000000000000000000000000008152600401620000729062000127565b60405180910390fd5b60ff801660008054906101000a900460ff1660ff161015620000ed5760ff6000806101000a81548160ff021916908360ff1602179055507f7f26b83ff96e1f2b6a682f133852f6798a09c465da95921460cefb384740249860ff604051620000e4919062000149565b60405180910390a15b565b6000620000fe60278362000166565b91506200010b8262000184565b604082019050919050565b620001218162000177565b82525050565b600060208201905081810360008301526200014281620000ef565b9050919050565b600060208201905062000160600083018462000116565b92915050565b600082825260208201905092915050565b600060ff82169050919050565b7f496e697469616c697a61626c653a20636f6e747261637420697320696e69746960008201527f616c697a696e6700000000000000000000000000000000000000000000000000602082015250565b613a5680620001e36000396000f3fe608060405234801561001057600080fd5b506004361061010a5760003560e01c8063715018a6116100a2578063a22cb46511610071578063a22cb465146102a1578063bd85b039146102bd578063e985e9c5146102ed578063f242432a1461031d578063f2fde38b146103395761010a565b8063715018a614610253578063731133e91461025d5780638129fc1c146102795780638da5cb5b146102835761010a565b80631f7fdffa116100de5780631f7fdffa146101bb5780632eb2c2d6146101d75780634e1273f4146101f35780634f558e79146102235761010a565b8062fdd58e1461010f57806301ffc9a71461013f57806302fe53051461016f5780630e89341c1461018b575b600080fd5b610129600480360381019061012491906127ee565b610355565b604051610136919061307b565b60405180910390f35b61015960048036038101906101549190612911565b61041f565b6040516101669190612e43565b60405180910390f35b61018960048036038101906101849190612963565b610501565b005b6101a560048036038101906101a091906129a4565b610515565b6040516101b29190612e79565b60405180910390f35b6101d560048036038101906101d09190612707565b6105a9565b005b6101f160048036038101906101ec91906125b9565b6105c3565b005b61020d600480360381019061020891906128a5565b610664565b60405161021a9190612dea565b60405180910390f35b61023d600480360381019061023891906129a4565b610815565b60405161024a9190612e43565b60405180910390f35b61025b610829565b005b6102776004803603810190610272919061282a565b61083d565b005b610281610857565b005b61028b6109b5565b6040516102989190612d0d565b60405180910390f35b6102bb60048036038101906102b691906127b2565b6109df565b005b6102d760048036038101906102d291906129a4565b6109f5565b6040516102e4919061307b565b60405180910390f35b6103076004803603810190610302919061257d565b610a12565b6040516103149190612e43565b60405180910390f35b61033760048036038101906103329190612678565b610aa6565b005b610353600480360381019061034e9190612554565b610b47565b005b60008073ffffffffffffffffffffffffffffffffffffffff168373ffffffffffffffffffffffffffffffffffffffff1614156103c6576040517f08c379a00000000000000000000000000000000000000000000000000000000081526004016103bd90612f1b565b60405180910390fd5b6065600083815260200190815260200160002060008473ffffffffffffffffffffffffffffffffffffffff1673ffffffffffffffffffffffffffffffffffffffff16815260200190815260200160002054905092915050565b60007fd9b67a26000000000000000000000000000000000000000000000000000000007bffffffffffffffffffffffffffffffffffffffffffffffffffffffff1916827bffffffffffffffffffffffffffffffffffffffffffffffffffffffff191614806104ea57507f0e89341c000000000000000000000000000000000000000000000000000000007bffffffffffffffffffffffffffffffffffffffffffffffffffffffff1916827bffffffffffffffffffffffffffffffffffffffffffffffffffffffff1916145b806104fa57506104f982610bcb565b5b9050919050565b610509610c35565b61051281610cb3565b50565b6060606780546105249061333a565b80601f01602080910402602001604051908101604052809291908181526020018280546105509061333a565b801561059d5780601f106105725761010080835404028352916020019161059d565b820191906000526020600020905b81548152906001019060200180831161058057829003601f168201915b50505050509050919050565b6105b1610c35565b6105bd84848484610ccd565b50505050565b6105cb610f47565b73ffffffffffffffffffffffffffffffffffffffff168573ffffffffffffffffffffffffffffffffffffffff16148061061157506106108561060b610f47565b610a12565b5b610650576040517f08c379a000000000000000000000000000000000000000000000000000000000815260040161064790612ebb565b60405180910390fd5b61065d8585858585610f4f565b5050505050565b606081518351146106aa576040517f08c379a00000000000000000000000000000000000000000000000000000000081526004016106a19061301b565b60405180910390fd5b6000835167ffffffffffffffff8111156106ed577f4e487b7100000000000000000000000000000000000000000000000000000000600052604160045260246000fd5b60405190808252806020026020018201604052801561071b5781602001602082028036833780820191505090505b50905060005b845181101561080a576107b4858281518110610766577f4e487b7100000000000000000000000000000000000000000000000000000000600052603260045260246000fd5b60200260200101518583815181106107a7577f4e487b7100000000000000000000000000000000000000000000000000000000600052603260045260246000fd5b6020026020010151610355565b8282815181106107ed577f4e487b7100000000000000000000000000000000000000000000000000000000600052603260045260246000fd5b602002602001018181525050806108039061339d565b9050610721565b508091505092915050565b600080610821836109f5565b119050919050565b610831610c35565b61083b60006112c0565b565b610845610c35565b61085184848484611386565b50505050565b60008060019054906101000a900460ff161590508080156108885750600160008054906101000a900460ff1660ff16105b806108b5575061089730611538565b1580156108b45750600160008054906101000a900460ff1660ff16145b5b6108f4576040517f08c379a00000000000000000000000000000000000000000000000000000000081526004016108eb90612f5b565b60405180910390fd5b60016000806101000a81548160ff021916908360ff1602179055508015610931576001600060016101000a81548160ff0219169083151502179055505b6109496040518060200160405280600081525061155b565b6109516115b6565b61095961160f565b80156109b25760008060016101000a81548160ff0219169083151502179055507f7f26b83ff96e1f2b6a682f133852f6798a09c465da95921460cefb384740249860016040516109a99190612e5e565b60405180910390a15b50565b6000609760009054906101000a900473ffffffffffffffffffffffffffffffffffffffff16905090565b6109f16109ea610f47565b8383611660565b5050565b600060c96000838152602001908152602001600020549050919050565b6000606660008473ffffffffffffffffffffffffffffffffffffffff1673ffffffffffffffffffffffffffffffffffffffff16815260200190815260200160002060008373ffffffffffffffffffffffffffffffffffffffff1673ffffffffffffffffffffffffffffffffffffffff16815260200190815260200160002060009054906101000a900460ff16905092915050565b610aae610f47565b73ffffffffffffffffffffffffffffffffffffffff168573ffffffffffffffffffffffffffffffffffffffff161480610af45750610af385610aee610f47565b610a12565b5b610b33576040517f08c379a0000000000000000000000000000000000000000000000000000000008152600401610b2a90612ebb565b60405180910390fd5b610b4085858585856117cd565b5050505050565b610b4f610c35565b600073ffffffffffffffffffffffffffffffffffffffff168173ffffffffffffffffffffffffffffffffffffffff161415610bbf576040517f08c379a0000000000000000000000000000000000000000000000000000000008152600401610bb690612efb565b60405180910390fd5b610bc8816112c0565b50565b60007f01ffc9a7000000000000000000000000000000000000000000000000000000007bffffffffffffffffffffffffffffffffffffffffffffffffffffffff1916827bffffffffffffffffffffffffffffffffffffffffffffffffffffffff1916149050919050565b610c3d610f47565b73ffffffffffffffffffffffffffffffffffffffff16610c5b6109b5565b73ffffffffffffffffffffffffffffffffffffffff1614610cb1576040517f08c379a0000000000000000000000000000000000000000000000000000000008152600401610ca890612f9b565b60405180910390fd5b565b8060679080519060200190610cc992919061224c565b5050565b600073ffffffffffffffffffffffffffffffffffffffff168473ffffffffffffffffffffffffffffffffffffffff161415610d3d576040517f08c379a0000000000000000000000000000000000000000000000000000000008152600401610d349061305b565b60405180910390fd5b8151835114610d81576040517f08c379a0000000000000000000000000000000000000000000000000000000008152600401610d789061303b565b60405180910390fd5b6000610d8b610f47565b9050610d9c81600087878787611a6c565b60005b8451811015610ea257838181518110610de1577f4e487b7100000000000000000000000000000000000000000000000000000000600052603260045260246000fd5b602002602001015160656000878481518110610e26577f4e487b7100000000000000000000000000000000000000000000000000000000600052603260045260246000fd5b6020026020010151815260200190815260200160002060008873ffffffffffffffffffffffffffffffffffffffff1673ffffffffffffffffffffffffffffffffffffffff1681526020019081526020016000206000828254610e88919061320f565b925050819055508080610e9a9061339d565b915050610d9f565b508473ffffffffffffffffffffffffffffffffffffffff16600073ffffffffffffffffffffffffffffffffffffffff168273ffffffffffffffffffffffffffffffffffffffff167f4a39dc06d4c0dbc64b70af90fd698a233a518aa5d07e595d983b8c0526c8f7fb8787604051610f1a929190612e0c565b60405180910390a4610f3181600087878787611a82565b610f4081600087878787611a8a565b5050505050565b600033905090565b8151835114610f93576040517f08c379a0000000000000000000000000000000000000000000000000000000008152600401610f8a9061303b565b60405180910390fd5b600073ffffffffffffffffffffffffffffffffffffffff168473ffffffffffffffffffffffffffffffffffffffff161415611003576040517f08c379a0000000000000000000000000000000000000000000000000000000008152600401610ffa90612f3b565b60405180910390fd5b600061100d610f47565b905061101d818787878787611a6c565b60005b845181101561121d576000858281518110611064577f4e487b7100000000000000000000000000000000000000000000000000000000600052603260045260246000fd5b6020026020010151905060008583815181106110a9577f4e487b7100000000000000000000000000000000000000000000000000000000600052603260045260246000fd5b6020026020010151905060006065600084815260200190815260200160002060008b73ffffffffffffffffffffffffffffffffffffffff1673ffffffffffffffffffffffffffffffffffffffff1681526020019081526020016000205490508181101561114b576040517f08c379a000000000000000000000000000000000000000000000000000000000815260040161114290612f7b565b60405180910390fd5b8181036065600085815260200190815260200160002060008c73ffffffffffffffffffffffffffffffffffffffff1673ffffffffffffffffffffffffffffffffffffffff16815260200190815260200160002081905550816065600085815260200190815260200160002060008b73ffffffffffffffffffffffffffffffffffffffff1673ffffffffffffffffffffffffffffffffffffffff1681526020019081526020016000206000828254611202919061320f565b92505081905550505050806112169061339d565b9050611020565b508473ffffffffffffffffffffffffffffffffffffffff168673ffffffffffffffffffffffffffffffffffffffff168273ffffffffffffffffffffffffffffffffffffffff167f4a39dc06d4c0dbc64b70af90fd698a233a518aa5d07e595d983b8c0526c8f7fb8787604051611294929190612e0c565b60405180910390a46112aa818787878787611a82565b6112b8818787878787611a8a565b505050505050565b6000609760009054906101000a900473ffffffffffffffffffffffffffffffffffffffff16905081609760006101000a81548173ffffffffffffffffffffffffffffffffffffffff021916908373ffffffffffffffffffffffffffffffffffffffff1602179055508173ffffffffffffffffffffffffffffffffffffffff168173ffffffffffffffffffffffffffffffffffffffff167f8be0079c531659141344cd1fd0a4f28419497f9722a3daafe3b4186f6b6457e060405160405180910390a35050565b600073ffffffffffffffffffffffffffffffffffffffff168473ffffffffffffffffffffffffffffffffffffffff1614156113f6576040517f08c379a00000000000000000000000000000000000000000000000000000000081526004016113ed9061305b565b60405180910390fd5b6000611400610f47565b9050600061140d85611c71565b9050600061141a85611c71565b905061142b83600089858589611a6c565b846065600088815260200190815260200160002060008973ffffffffffffffffffffffffffffffffffffffff1673ffffffffffffffffffffffffffffffffffffffff168152602001908152602001600020600082825461148b919061320f565b925050819055508673ffffffffffffffffffffffffffffffffffffffff16600073ffffffffffffffffffffffffffffffffffffffff168473ffffffffffffffffffffffffffffffffffffffff167fc3d58168c5ae7397731d063d5bbf3d657854427343f4c083240f7aacaa2d0f628989604051611509929190613096565b60405180910390a461152083600089858589611a82565b61152f83600089898989611d37565b50505050505050565b6000808273ffffffffffffffffffffffffffffffffffffffff163b119050919050565b600060019054906101000a900460ff166115aa576040517f08c379a00000000000000000000000000000000000000000000000000000000081526004016115a190612fdb565b60405180910390fd5b6115b381611f1e565b50565b600060019054906101000a900460ff16611605576040517f08c379a00000000000000000000000000000000000000000000000000000000081526004016115fc90612fdb565b60405180910390fd5b61160d611f79565b565b600060019054906101000a900460ff1661165e576040517f08c379a000000000000000000000000000000000000000000000000000000000815260040161165590612fdb565b60405180910390fd5b565b8173ffffffffffffffffffffffffffffffffffffffff168373ffffffffffffffffffffffffffffffffffffffff1614156116cf576040517f08c379a00000000000000000000000000000000000000000000000000000000081526004016116c690612ffb565b60405180910390fd5b80606660008573ffffffffffffffffffffffffffffffffffffffff1673ffffffffffffffffffffffffffffffffffffffff16815260200190815260200160002060008473ffffffffffffffffffffffffffffffffffffffff1673ffffffffffffffffffffffffffffffffffffffff16815260200190815260200160002060006101000a81548160ff0219169083151502179055508173ffffffffffffffffffffffffffffffffffffffff168373ffffffffffffffffffffffffffffffffffffffff167f17307eab39ab6107e8899845ad3d59bd9653f200f220920489ca2b5937696c31836040516117c09190612e43565b60405180910390a3505050565b600073ffffffffffffffffffffffffffffffffffffffff168473ffffffffffffffffffffffffffffffffffffffff16141561183d576040517f08c379a000000000000000000000000000000000000000000000000000000000815260040161183490612f3b565b60405180910390fd5b6000611847610f47565b9050600061185485611c71565b9050600061186185611c71565b9050611871838989858589611a6c565b60006065600088815260200190815260200160002060008a73ffffffffffffffffffffffffffffffffffffffff1673ffffffffffffffffffffffffffffffffffffffff16815260200190815260200160002054905085811015611909576040517f08c379a000000000000000000000000000000000000000000000000000000000815260040161190090612f7b565b60405180910390fd5b8581036065600089815260200190815260200160002060008b73ffffffffffffffffffffffffffffffffffffffff1673ffffffffffffffffffffffffffffffffffffffff16815260200190815260200160002081905550856065600089815260200190815260200160002060008a73ffffffffffffffffffffffffffffffffffffffff1673ffffffffffffffffffffffffffffffffffffffff16815260200190815260200160002060008282546119c0919061320f565b925050819055508773ffffffffffffffffffffffffffffffffffffffff168973ffffffffffffffffffffffffffffffffffffffff168573ffffffffffffffffffffffffffffffffffffffff167fc3d58168c5ae7397731d063d5bbf3d657854427343f4c083240f7aacaa2d0f628a8a604051611a3d929190613096565b60405180910390a4611a53848a8a86868a611a82565b611a61848a8a8a8a8a611d37565b505050505050505050565b611a7a868686868686611fda565b505050505050565b505050505050565b611aa98473ffffffffffffffffffffffffffffffffffffffff16611538565b15611c69578373ffffffffffffffffffffffffffffffffffffffff1663bc197c8187878686866040518663ffffffff1660e01b8152600401611aef959493929190612d28565b602060405180830381600087803b158015611b0957600080fd5b505af1925050508015611b3a57506040513d601f19601f82011682018060405250810190611b37919061293a565b60015b611be057611b46613473565b806308c379a01415611ba35750611b5b61392e565b80611b665750611ba5565b806040517f08c379a0000000000000000000000000000000000000000000000000000000008152600401611b9a9190612e79565b60405180910390fd5b505b6040517f08c379a0000000000000000000000000000000000000000000000000000000008152600401611bd790612e9b565b60405180910390fd5b63bc197c8160e01b7bffffffffffffffffffffffffffffffffffffffffffffffffffffffff1916817bffffffffffffffffffffffffffffffffffffffffffffffffffffffff191614611c67576040517f08c379a0000000000000000000000000000000000000000000000000000000008152600401611c5e90612edb565b60405180910390fd5b505b505050505050565b60606000600167ffffffffffffffff811115611cb6577f4e487b7100000000000000000000000000000000000000000000000000000000600052604160045260246000fd5b604051908082528060200260200182016040528015611ce45781602001602082028036833780820191505090505b5090508281600081518110611d22577f4e487b7100000000000000000000000000000000000000000000000000000000600052603260045260246000fd5b60200260200101818152505080915050919050565b611d568473ffffffffffffffffffffffffffffffffffffffff16611538565b15611f16578373ffffffffffffffffffffffffffffffffffffffff1663f23a6e6187878686866040518663ffffffff1660e01b8152600401611d9c959493929190612d90565b602060405180830381600087803b158015611db657600080fd5b505af1925050508015611de757506040513d601f19601f82011682018060405250810190611de4919061293a565b60015b611e8d57611df3613473565b806308c379a01415611e505750611e0861392e565b80611e135750611e52565b806040517f08c379a0000000000000000000000000000000000000000000000000000000008152600401611e479190612e79565b60405180910390fd5b505b6040517f08c379a0000000000000000000000000000000000000000000000000000000008152600401611e8490612e9b565b60405180910390fd5b63f23a6e6160e01b7bffffffffffffffffffffffffffffffffffffffffffffffffffffffff1916817bffffffffffffffffffffffffffffffffffffffffffffffffffffffff191614611f14576040517f08c379a0000000000000000000000000000000000000000000000000000000008152600401611f0b90612edb565b60405180910390fd5b505b505050505050565b600060019054906101000a900460ff16611f6d576040517f08c379a0000000000000000000000000000000000000000000000000000000008152600401611f6490612fdb565b60405180910390fd5b611f7681610cb3565b50565b600060019054906101000a900460ff16611fc8576040517f08c379a0000000000000000000000000000000000000000000000000000000008152600401611fbf90612fdb565b60405180910390fd5b611fd8611fd3610f47565b6112c0565b565b611fe8868686868686612244565b600073ffffffffffffffffffffffffffffffffffffffff168573ffffffffffffffffffffffffffffffffffffffff1614156120e65760005b83518110156120e457828181518110612062577f4e487b7100000000000000000000000000000000000000000000000000000000600052603260045260246000fd5b602002602001015160c960008684815181106120a7577f4e487b7100000000000000000000000000000000000000000000000000000000600052603260045260246000fd5b6020026020010151815260200190815260200160002060008282546120cc919061320f565b92505081905550806120dd9061339d565b9050612020565b505b600073ffffffffffffffffffffffffffffffffffffffff168473ffffffffffffffffffffffffffffffffffffffff16141561223c5760005b835181101561223a576000848281518110612162577f4e487b7100000000000000000000000000000000000000000000000000000000600052603260045260246000fd5b6020026020010151905060008483815181106121a7577f4e487b7100000000000000000000000000000000000000000000000000000000600052603260045260246000fd5b60200260200101519050600060c960008481526020019081526020016000205490508181101561220c576040517f08c379a000000000000000000000000000000000000000000000000000000000815260040161220390612fbb565b60405180910390fd5b81810360c9600085815260200190815260200160002081905550505050806122339061339d565b905061211e565b505b505050505050565b505050505050565b8280546122589061333a565b90600052602060002090601f01602090048101928261227a57600085556122c1565b82601f1061229357805160ff19168380011785556122c1565b828001600101855582156122c1579182015b828111156122c05782518255916020019190600101906122a5565b5b5090506122ce91906122d2565b5090565b5b808211156122eb5760008160009055506001016122d3565b5090565b60006123026122fd846130e4565b6130bf565b9050808382526020820190508285602086028201111561232157600080fd5b60005b8581101561235157816123378882612443565b845260208401935060208301925050600181019050612324565b5050509392505050565b600061236e61236984613110565b6130bf565b9050808382526020820190508285602086028201111561238d57600080fd5b60005b858110156123bd57816123a3888261253f565b845260208401935060208301925050600181019050612390565b5050509392505050565b60006123da6123d58461313c565b6130bf565b9050828152602081018484840111156123f257600080fd5b6123fd8482856132f8565b509392505050565b60006124186124138461316d565b6130bf565b90508281526020810184848401111561243057600080fd5b61243b8482856132f8565b509392505050565b600081359050612452816139c4565b92915050565b600082601f83011261246957600080fd5b81356124798482602086016122ef565b91505092915050565b600082601f83011261249357600080fd5b81356124a384826020860161235b565b91505092915050565b6000813590506124bb816139db565b92915050565b6000813590506124d0816139f2565b92915050565b6000815190506124e5816139f2565b92915050565b600082601f8301126124fc57600080fd5b813561250c8482602086016123c7565b91505092915050565b600082601f83011261252657600080fd5b8135612536848260208601612405565b91505092915050565b60008135905061254e81613a09565b92915050565b60006020828403121561256657600080fd5b600061257484828501612443565b91505092915050565b6000806040838503121561259057600080fd5b600061259e85828601612443565b92505060206125af85828601612443565b9150509250929050565b600080600080600060a086880312156125d157600080fd5b60006125df88828901612443565b95505060206125f088828901612443565b945050604086013567ffffffffffffffff81111561260d57600080fd5b61261988828901612482565b935050606086013567ffffffffffffffff81111561263657600080fd5b61264288828901612482565b925050608086013567ffffffffffffffff81111561265f57600080fd5b61266b888289016124eb565b9150509295509295909350565b600080600080600060a0868803121561269057600080fd5b600061269e88828901612443565b95505060206126af88828901612443565b94505060406126c08882890161253f565b93505060606126d18882890161253f565b925050608086013567ffffffffffffffff8111156126ee57600080fd5b6126fa888289016124eb565b9150509295509295909350565b6000806000806080858703121561271d57600080fd5b600061272b87828801612443565b945050602085013567ffffffffffffffff81111561274857600080fd5b61275487828801612482565b935050604085013567ffffffffffffffff81111561277157600080fd5b61277d87828801612482565b925050606085013567ffffffffffffffff81111561279a57600080fd5b6127a6878288016124eb565b91505092959194509250565b600080604083850312156127c557600080fd5b60006127d385828601612443565b92505060206127e4858286016124ac565b9150509250929050565b6000806040838503121561280157600080fd5b600061280f85828601612443565b92505060206128208582860161253f565b9150509250929050565b6000806000806080858703121561284057600080fd5b600061284e87828801612443565b945050602061285f8782880161253f565b93505060406128708782880161253f565b925050606085013567ffffffffffffffff81111561288d57600080fd5b612899878288016124eb565b91505092959194509250565b600080604083850312156128b857600080fd5b600083013567ffffffffffffffff8111156128d257600080fd5b6128de85828601612458565b925050602083013567ffffffffffffffff8111156128fb57600080fd5b61290785828601612482565b9150509250929050565b60006020828403121561292357600080fd5b6000612931848285016124c1565b91505092915050565b60006020828403121561294c57600080fd5b600061295a848285016124d6565b91505092915050565b60006020828403121561297557600080fd5b600082013567ffffffffffffffff81111561298f57600080fd5b61299b84828501612515565b91505092915050565b6000602082840312156129b657600080fd5b60006129c48482850161253f565b91505092915050565b60006129d98383612cef565b60208301905092915050565b6129ee81613265565b82525050565b60006129ff826131ae565b612a0981856131dc565b9350612a148361319e565b8060005b83811015612a45578151612a2c88826129cd565b9750612a37836131cf565b925050600181019050612a18565b5085935050505092915050565b612a5b81613277565b82525050565b6000612a6c826131b9565b612a7681856131ed565b9350612a86818560208601613307565b612a8f81613495565b840191505092915050565b612aa3816132e6565b82525050565b6000612ab4826131c4565b612abe81856131fe565b9350612ace818560208601613307565b612ad781613495565b840191505092915050565b6000612aef6034836131fe565b9150612afa826134b3565b604082019050919050565b6000612b12602f836131fe565b9150612b1d82613502565b604082019050919050565b6000612b356028836131fe565b9150612b4082613551565b604082019050919050565b6000612b586026836131fe565b9150612b63826135a0565b604082019050919050565b6000612b7b602a836131fe565b9150612b86826135ef565b604082019050919050565b6000612b9e6025836131fe565b9150612ba98261363e565b604082019050919050565b6000612bc1602e836131fe565b9150612bcc8261368d565b604082019050919050565b6000612be4602a836131fe565b9150612bef826136dc565b604082019050919050565b6000612c076020836131fe565b9150612c128261372b565b602082019050919050565b6000612c2a6028836131fe565b9150612c3582613754565b604082019050919050565b6000612c4d602b836131fe565b9150612c58826137a3565b604082019050919050565b6000612c706029836131fe565b9150612c7b826137f2565b604082019050919050565b6000612c936029836131fe565b9150612c9e82613841565b604082019050919050565b6000612cb66028836131fe565b9150612cc182613890565b604082019050919050565b6000612cd96021836131fe565b9150612ce4826138df565b604082019050919050565b612cf8816132cf565b82525050565b612d07816132cf565b82525050565b6000602082019050612d2260008301846129e5565b92915050565b600060a082019050612d3d60008301886129e5565b612d4a60208301876129e5565b8181036040830152612d5c81866129f4565b90508181036060830152612d7081856129f4565b90508181036080830152612d848184612a61565b90509695505050505050565b600060a082019050612da560008301886129e5565b612db260208301876129e5565b612dbf6040830186612cfe565b612dcc6060830185612cfe565b8181036080830152612dde8184612a61565b90509695505050505050565b60006020820190508181036000830152612e0481846129f4565b905092915050565b60006040820190508181036000830152612e2681856129f4565b90508181036020830152612e3a81846129f4565b90509392505050565b6000602082019050612e586000830184612a52565b92915050565b6000602082019050612e736000830184612a9a565b92915050565b60006020820190508181036000830152612e938184612aa9565b905092915050565b60006020820190508181036000830152612eb481612ae2565b9050919050565b60006020820190508181036000830152612ed481612b05565b9050919050565b60006020820190508181036000830152612ef481612b28565b9050919050565b60006020820190508181036000830152612f1481612b4b565b9050919050565b60006020820190508181036000830152612f3481612b6e565b9050919050565b60006020820190508181036000830152612f5481612b91565b9050919050565b60006020820190508181036000830152612f7481612bb4565b9050919050565b60006020820190508181036000830152612f9481612bd7565b9050919050565b60006020820190508181036000830152612fb481612bfa565b9050919050565b60006020820190508181036000830152612fd481612c1d565b9050919050565b60006020820190508181036000830152612ff481612c40565b9050919050565b6000602082019050818103600083015261301481612c63565b9050919050565b6000602082019050818103600083015261303481612c86565b9050919050565b6000602082019050818103600083015261305481612ca9565b9050919050565b6000602082019050818103600083015261307481612ccc565b9050919050565b60006020820190506130906000830184612cfe565b92915050565b60006040820190506130ab6000830185612cfe565b6130b86020830184612cfe565b9392505050565b60006130c96130da565b90506130d5828261336c565b919050565b6000604051905090565b600067ffffffffffffffff8211156130ff576130fe613444565b5b602082029050602081019050919050565b600067ffffffffffffffff82111561312b5761312a613444565b5b602082029050602081019050919050565b600067ffffffffffffffff82111561315757613156613444565b5b61316082613495565b9050602081019050919050565b600067ffffffffffffffff82111561318857613187613444565b5b61319182613495565b9050602081019050919050565b6000819050602082019050919050565b600081519050919050565b600081519050919050565b600081519050919050565b6000602082019050919050565b600082825260208201905092915050565b600082825260208201905092915050565b600082825260208201905092915050565b600061321a826132cf565b9150613225836132cf565b9250827fffffffffffffffffffffffffffffffffffffffffffffffffffffffffffffffff0382111561325a576132596133e6565b5b828201905092915050565b6000613270826132af565b9050919050565b60008115159050919050565b60007fffffffff0000000000000000000000000000000000000000000000000000000082169050919050565b600073ffffffffffffffffffffffffffffffffffffffff82169050919050565b6000819050919050565b600060ff82169050919050565b60006132f1826132d9565b9050919050565b82818337600083830152505050565b60005b8381101561332557808201518184015260208101905061330a565b83811115613334576000848401525b50505050565b6000600282049050600182168061335257607f821691505b6020821081141561336657613365613415565b5b50919050565b61337582613495565b810181811067ffffffffffffffff8211171561339457613393613444565b5b80604052505050565b60006133a8826132cf565b91507fffffffffffffffffffffffffffffffffffffffffffffffffffffffffffffffff8214156133db576133da6133e6565b5b600182019050919050565b7f4e487b7100000000000000000000000000000000000000000000000000000000600052601160045260246000fd5b7f4e487b7100000000000000000000000000000000000000000000000000000000600052602260045260246000fd5b7f4e487b7100000000000000000000000000000000000000000000000000000000600052604160045260246000fd5b600060033d11156134925760046000803e61348f6000516134a6565b90505b90565b6000601f19601f8301169050919050565b60008160e01c9050919050565b7f455243313135353a207472616e7366657220746f206e6f6e204552433131353560008201527f526563656976657220696d706c656d656e746572000000000000000000000000602082015250565b7f455243313135353a2063616c6c6572206973206e6f7420746f6b656e206f776e60008201527f6572206e6f7220617070726f7665640000000000000000000000000000000000602082015250565b7f455243313135353a204552433131353552656365697665722072656a6563746560008201527f6420746f6b656e73000000000000000000000000000000000000000000000000602082015250565b7f4f776e61626c653a206e6577206f776e657220697320746865207a65726f206160008201527f6464726573730000000000000000000000000000000000000000000000000000602082015250565b7f455243313135353a2061646472657373207a65726f206973206e6f742061207660008201527f616c6964206f776e657200000000000000000000000000000000000000000000602082015250565b7f455243313135353a207472616e7366657220746f20746865207a65726f20616460008201527f6472657373000000000000000000000000000000000000000000000000000000602082015250565b7f496e697469616c697a61626c653a20636f6e747261637420697320616c72656160008201527f647920696e697469616c697a6564000000000000000000000000000000000000602082015250565b7f455243313135353a20696e73756666696369656e742062616c616e636520666f60008201527f72207472616e7366657200000000000000000000000000000000000000000000602082015250565b7f4f776e61626c653a2063616c6c6572206973206e6f7420746865206f776e6572600082015250565b7f455243313135353a206275726e20616d6f756e74206578636565647320746f7460008201527f616c537570706c79000000000000000000000000000000000000000000000000602082015250565b7f496e697469616c697a61626c653a20636f6e7472616374206973206e6f74206960008201527f6e697469616c697a696e67000000000000000000000000000000000000000000602082015250565b7f455243313135353a2073657474696e6720617070726f76616c2073746174757360008201527f20666f722073656c660000000000000000000000000000000000000000000000602082015250565b7f455243313135353a206163636f756e747320616e6420696473206c656e67746860008201527f206d69736d617463680000000000000000000000000000000000000000000000602082015250565b7f455243313135353a2069647320616e6420616d6f756e7473206c656e6774682060008201527f6d69736d61746368000000000000000000000000000000000000000000000000602082015250565b7f455243313135353a206d696e7420746f20746865207a65726f2061646472657360008201527f7300000000000000000000000000000000000000000000000000000000000000602082015250565b600060443d101561393e576139c1565b6139466130da565b60043d036004823e80513d602482011167ffffffffffffffff8211171561396e5750506139c1565b808201805167ffffffffffffffff81111561398c57505050506139c1565b80602083010160043d0385018111156139a95750505050506139c1565b6139b88260200185018661336c565b82955050505050505b90565b6139cd81613265565b81146139d857600080fd5b50565b6139e481613277565b81146139ef57600080fd5b50565b6139fb81613283565b8114613a0657600080fd5b50565b613a12816132cf565b8114613a1d57600080fd5b5056fea2646970667358221220123357b001171ebfcb161d0257110d835194d844e38ca4334f0c5ab5a8cfd28664736f6c63430008040033",
  "linkReferences": {},
  "deployedLinkReferences": {}
}